:020000040800F2
:10000000284D0020450100080F0A0008A50500083A
:100010000D0A000867020008F50E00080000000045
:10002000000000000000000000000000C90A0008F5
:100030006902000800000000110A0008CB0A00084D
:100040005F0100085F0100085F0100085F01000810
:100050006B0200085F0100085F0100085F010008F3
:100060005F0100085F0100085F0100085F010008F0
:100070005F0100085F0100085F0100085F010008E0
:100080005F0100085F0100085F0100085F010008D0
:100090005F0100085F0100085F0100085F010008C0
:1000A0005F0100085F0100085F0100085F010008B0
:1000B0005F0100085F0100085F0100085F010008A0
:1000C0005F0100085F0100085F0100085F01000890
:1000D0005F0100085F0100085F0100085F01000880
:1000E0005F0100085F0100085F0100085F01000870
:1000F0005F0100085F0100085F0100085F01000860
:100100005F0100085F0100085F0100085F0100084F
:100110005F0100085F0100085F0100085F0100083F
:100120005F0100085F0100085F0100085F0100082F
:10013000DFF80CD000F05AF8004800471586000898
:10014000284D00200648804706480047FEE7FEE7A6
:10015000FEE7FEE7FEE7FEE7FEE7FEE7FEE7FEE777
:10016000590B00083101000840EA01039B0703D046
:1001700009E008C9121F08C0042AFAD203E011F8E6
:10018000013B00F8013B521EF9D27047D2B201E0A8
:1001900000F8012B491EFBD270470022F6E710B58C
:1001A00013460A4604461946FFF7F0FF204610BDE5
:1001B000421C10F8011B0029FBD1801A704710B5B2
:1001C000002200E0521C835C8C5CA34201D1002B16
:1001D000F8D1D8B2E1B2401A10BD034611F8012B94
:1001E00000F8012B002AF9D118467047064C074D3C
:1001F00006E0E06840F0010394E8070098471034F7
:10020000AC42F6D3FFF798FFDCAC0008FCAC00086A
:1002100070B58C1810F8015B15F0070301D110F8C8
:10022000013B2A1106D110F8012B03E010F8016BF5
:1002300001F8016B5B1EF9D12B0705D40023521E78
:100240000DD401F8013BFAE710F8013BCB1A921CE0
:1002500003E013F8015B01F8015B521EF9D5A142DE
:10026000D8D3002070BDFEE7704700F051B8000001
:10027000064A0021D16106490A6942F002020A6178
:100280004861086940F0400008617047A8250020D7
:1002900000200240044B0022DA61044A136943F053
:1002A0000103136101807047A8250020002002404F
:1002B00014480022C168CB06134904D5CA6942F02C
:1002C0000202CA611022C3685B0705D5CB6943F0FF
:1002D0000103CB6142F00402C369DB0707D0CB699D
:1002E00043F00403CB61C16921F00101C161A2F5B2
:1002F0008071013901D0C2607047C16921F00101EC
:10030000C161704700200240A8250020704700000E
:100310002DE9F0413E4DE8683E4CC0064FF0FF37F6
:100320004FF0000602D4E868400708D5D4F80880EA
:10033000A760FFF7BDFF404600F06EF82670E86842
:10034000800653D52020E8602078F8B12078012875
:100350001DD02078022833D06068401E606060683D
:10036000B0B3A068801CA060A06821696269090C14
:1003700041EA0241120C21616261296921F0010107
:1003800029612169626989B2FFF784FF2EE0606804
:10039000401E6060606868B1A068FFF7B7FFA068A2
:1003A00000F50060A060296921F002012961FFF7D2
:1003B0005FFF1BE03846A7602670FFF7A7FF15E038
:1003C000286920F0040028610020FFF79FFF0CE05F
:1003D000FFE72078032817D020780428A06815D0DC
:1003E000B0F10600FFF792FFA76026702078002882
:1003F00008D1286920F007002861286920F4A0505E
:1004000028612676BDE8F081A068EBE7801EE9E769
:1004100000200240A82500207047000002488168A3
:10042000027811448160704700000020074810B531
:10043000016841F010010160032000F07DF8002008
:1004400000F006F800F024F8002010BD0020024063
:1004500070B50D4D04464FF47A712878B1FBF0F079
:100460000A490968B1FBF0F000F078F848B9102C9F
:1004700007D200222146501E00F03EF800206C609A
:1004800070BD012070BD0000000000200C000020A5
:10049000104808B5816941F001018161816901F06D
:1004A00001010091C16941F08051C161C069002220
:1004B00000F0805000901146042000F01DF8042048
:1004C00000F00CF80448416821F0E06141F000714F
:1004D000416008BD0010024000000140002809DB17
:1004E00000F01F02012191404009800000F1E0204E
:1004F000C0F8001170470000F0B40E4B1B680C46AA
:10050000C3F30223C3F10705042D00D90425191DE7
:10051000072901D2002300E0DB1E012606FA05F1BF
:10052000491E214099409E40761E16403143F0BC42
:1005300000F0E1BC0CED00E0064900F0070208689D
:100540004FF6FF03184040EA0220034A10430860B8
:10055000704700000CED00E00000FA0510B5401EE9
:10056000B0F1807F01D3012010BD4FF0E024606125
:100570000F21601700F0BFFC0020A0610720206160
:10058000002010BD70B5064C054600202178A94218
:1005900005D06068FFF75CFF002800D1257070BDB2
:1005A00000000020FEE70000044908B58A69024304
:1005B0008A6189690140009108BD00000010024075
:1005C000044908B58A6902438A618969014000913A
:1005D00008BD000000100240044908B58A690243C2
:1005E0008A6189690140009108BD00000010024045
:1005F000F0B50A68C2F30F2595FAA5F2B2FA82F3B4
:1006000069E001229A402A4264D0082B03D240F2CA
:1006100001129A4006E0A3F108024FF00114944041
:1006200044F0806292FAA2F700EB1264B7FA87F7FF
:100630004FEA870C0F27266807FA0CF7BE4392FA99
:10064000A2F7D1F804E0B7FA87F7BF000EFA07FE69
:1006500046EA0E0626600E69C7684FEA122C9CFA1D
:10066000ACFCBCFA8CFC27EA122706FA0CF63743DE
:10067000C7604E68012E01D0092E2BD192FAA2F745
:10068000B7FA87F74FEA870C032707FA0CF72668B3
:10069000D1F808E0BE4392FAA2F7B7FA87F7BF0095
:1006A0000EFA07FE92FAA2FC46EA0E06BCFA8CFC91
:1006B0004FEA8C0E4FF0040C26600CFA0EFC92FAF6
:1006C000A2F2B2FA82F2CF68920026EA0C069740B4
:1006D0003E4326605B1C35FA03F292D10020F0BD48
:1006E00000B5034600F0C0F9186000F093F95860B7
:1006F00000F09EF99860586800F0A8F9D86000BD35
:1007000010B503680122C3F380132BBBD1E900238A
:100710001A43D1E9023423431A430B691A434B6944
:100720001A438B691A43CB691A430B6A1A4303684D
:100730004FF6BF74A3431A43026042684B6922F02C
:10074000040242EA134242600A6AB2F5005F02D133
:10075000898C89B201610022C16921F40061C16103
:10076000104610BD01490860704700000C000020D1
:100770002DE9FF410446C0680D460126C0F3403014
:10078000002861D1E9686868E2680843296941F294
:100790000C639A4311430843E060A868216921F47F
:1007A0004051014321616869616921F4407101434D
:1007B00061616846FFF794FF2548844201D10398A0
:1007C0000CE02448844208D02348844205D02348C2
:1007D000844202D02248844236D10298A0B32A68CB
:1007E00092B300EBC00101EB00119200B1FBF2F3F8
:1007F0006420B3FBF0F36FF018077B43B1FBF2F515
:10080000B1FBF2F705EB8305322303EB0515B5FBCE
:10081000F0F5B7FBF0F705F0F00505EB0715B1FBB8
:10082000F2F7B1FBF2F1B1FBF0F100266FF0180224
:10083000514307EB810103EB0111B1FBF0F000F034
:100840000F00284480B2A06004B03046BDE8F081BB
:10085000003801400044004000480040004C004087
:100860000050004008B54FF0E0210A690092421C98
:1008700000D0401C0A69D20300D5401E0028F9D1DF
:1008800008BD000000B585B014216846FFF785FC5F
:100890001020FFF789FE2020FFF786FE0420FFF7D7
:1008A00083FE0820FFF780FE08481E2241F61E61E5
:1008B00042610091012101910221029100210391E5
:1008C0006946FFF795FE05B000BD00000008014035
:1008D00030B58FB028216846FFF75FFC14210AA8C5
:1008E000FFF75BFC4FF48050FFF76AFE0420FFF730
:1008F00067FE4AF2A0000A9009200B900320002412
:10090000CDE90C04134D0AA92846FFF771FE44F205
:1009100040000A9004200B900AA92846FFF768FEC1
:100920004FF48270CDE900406815CDE9044002948F
:100930000820CDE9060403940A20CDE90840064CBE
:1009400069462046FFF7DCFE206840F0400020604A
:100950000FB030BD00080140003001408268C2F392
:100960004002002AFAD00173816811F0010FFBD018
:10097000C068704730B58DB01C216846FFF70DFC8C
:10098000142107A8FFF709FC4FF48040FFF724FE6D
:100990000420FFF721FE1948079009200890032042
:1009A0000024CDE90904164D07A92846FFF720FECB
:1009B000144807900420089007A92846FFF718FE5E
:1009C0004FF4E130CDE900040C200294CDE903405E
:1009D000059406940C4C69462046FFF7C9FE206931
:1009E00020F490402061606920F02A006061E06896
:1009F00040F40050E0600DB030BD00000200020481
:100A0000000801400400040400380140FEE770477C
:100A10007047000004494968044A01F0F0010909DF
:100A2000515CC8407047000000100240B6880008C2
:100A300004494968044A01F4E06102EB1121097894
:100A4000C840704700100240C68800080449496841
:100A5000044A01F4605102EBD1210978C840704783
:100A600000100240C68800080648406810F00C01DB
:100A7000054805D0042903D0082901D100F006B8A3
:100A8000704700000010024000127A000B484168D5
:100A900011F480320A4909D0B2F5803F06D141688D
:100AA000084AC1F34041491CB2FBF1F140680222FF
:100AB00000F4701002EB9040484370470010024071
:100AC00000093D0000127A007047FFF7A7BC000044
:100AD0001E48016821F0070141F002010160006831
:100AE0001B48016841F4803101600168C1F3404155
:100AF0000029FAD0416821F47C1141F4E8114160E9
:100B0000016841F0807101600168C1F34061002912
:100B1000FAD0416821F0F0014160416821F4E061C0
:100B200041F480614160416821F460514160416855
:100B300021F0030141F002014160416801F00C0124
:100B40000829FAD10348FFF70DBE0000002002403B
:100B50000010024000A24A040D48016841F0010162
:100B6000016041680B4A1140416001680A4A114026
:100B70000160016821F480210160416821F4FE01D7
:100B800041604FF41F0181600449C0030860704751
:100B9000001002400000FFF8FFFFF6FE08ED00E045
:100BA0002DE9F0470E4F0426DDF820A01C4615461F
:100BB000894680467E6100F053F9A4EB0900A5EB5D
:100BC0000805401C6D1C4543002403E0504600F01E
:100BD00065F9641CAC42F9D33E61BDE8F0870000C2
:100BE000000801402DE9F047DFF83C800427089E0B
:100BF000994614468A460546C8F8147000F030F944
:100C0000A9EB0A00651B401C6D1C4543002404E051
:100C1000308800F043F9641CB61CAC42F8D3C8F825
:100C20001070BDE8F087000000080140F8B58B4C5B
:100C30000425256102206061102666613220FFF7DD
:100C400011FE26613220FFF70DFE6561CB2000F01A
:100C500045F9392000F036F92C2000F033F9002056
:100C600000F030F9342000F02DF9022000F02AF9CC
:100C7000CF2000F033F9002000F024F9C12000F06B
:100C800021F9302000F01EF9E82000F027F9852036
:100C900000F018F9002000F015F9782000F012F9A2
:100CA000EA2000F01BF9002000F00CF9002000F011
:100CB00009F9ED2000F012F9642000F003F9032097
:100CC00000F000F9122000F0FDF8812000F0FAF8A1
:100CD000F72000F003F9202000F0F4F8C02000F025
:100CE000FDF8232000F0EEF8C12000F0F7F8102006
:100CF00000F0E8F8C52000F0F1F83E2000F0E2F83E
:100D0000282000F0DFF8C72000F0E8F8862000F087
:100D1000D9F8362000F0E2F8E82000F0D3F83A20C5
:100D200000F0DCF8552000F0CDF8B12000F0D6F846
:100D3000002000F0C7F8182000F0C4F8B62000F03A
:100D4000CDF8082000F0BEF8822000F0BBF8272084
:100D500000F0B8F8F22000F0C1F8002000F0B2F87E
:100D6000262000F0BBF8012000F0ACF8E02000F0F5
:100D7000B5F80F2000F0A6F8312000F0A3F82B20E2
:100D800000F0A0F80C2000F09DF80E2000F09AF87A
:100D9000082000F097F84E2000F094F8F12000F0C1
:100DA00091F8372000F08EF8072000F08BF8102023
:100DB00000F088F8032000F085F80E2000F082F89B
:100DC000092000F07FF8002000F07CF8E12000F01E
:100DD00085F8002000F076F80E2000F073F814205B
:100DE00000F070F8032000F06DF8112000F06AF8B0
:100DF000072000F067F8312000F064F8C12000F00F
:100E000061F8482000F05EF8082000F05BF80F2041
:100E100000F058F80C2000F055F8312000F052F89E
:100E2000362000F04FF80F2000F04CF8112000F0B1
:100E300055F89620FFF716FD292000F04FF82C20DA
:100E400000F04CF84FF6FF7000210090F0234FF4B3
:100E5000A0720846FFF7A4FEF8BD0000000801409C
:100E60002DE9F04107461C4615460E462A2000F0A3
:100E700035F8B8B200F012F8A8B200F00FF82B2045
:100E800000F02CF8B0B200F009F8A0B200F006F8BB
:100E9000BDE8F0412C2000F021B8000070B50749F2
:100EA000044608200861064D210A2846FFF756FD32
:100EB000E1B22846BDE87040FFF750BD0008014090
:100EC00000300140034A0821116101460248FFF742
:100ED00045BD00000008014000300140034A0821E0
:100EE000516101460248FFF739BD0000000801408A
:100EF00000300140FEE70907090E002804DB00F17D
:100F0000E02080F80014704700F00F0000F1E020AE
:100F100080F8141D704702E008C8121F08C1002A9B
:100F2000FAD170477047002001E001C1121F002A6A
:100F3000FBD1704730B5044690F82400194D8BB0B2
:100F4000810717D4C10701D0410713D528222146B4
:100F50006846FFF709F92146134805F0CBFC204607
:100F600005F032FD012028700398B8B101466846AB
:100F7000884713E0E18B49426183C1070ED04107E6
:100F800002D4A18B494261838110491C61F3820024
:100F900084F82400D4E90410C4E9040128780BB0D3
:100FA00030BD0000340C00200429002070B5234817
:100FB00005F0D2FB06E0486A20F0080048621F48AE
:100FC00005F0CFFB0100F6D11D4D686807F0B4F8BD
:100FD000064624E000202870606A010723D440F010
:100FE00008006062608B304400B2608300281ADB26
:100FF000218B884200DD6183A168204688476268B2
:101000001AB1236801B218469047B4F91A00218B2F
:10101000884202DB2046FFF78DFF287818B1074889
:1010200005F09AFB03E02146044805F09AFB040012
:10103000D0D107F087F8686070BD00000429002057
:10104000340C002002280ED003280FD0042811D021
:10105000C1EBC101401EB1FBF0F00849C0B2085C11
:101060005043000A70470548093801E00348C01F93
:10107000405CF5E70148001FFAE70000138900080B
:101080000749096850B1021D006801F5005102EBE3
:101090005000021D8A4200D3002070470846704766
:1010A000440C002010B58A0702D021F00301091D6D
:1010B00002680B1DB3EB520F00D15108B1EB520F78
:1010C0000CD0021D0A44136823F001031360046866
:1010D000C1EB5404241F64F35F031360026861F3DF
:1010E0005F02026010BD2DE9F047054690F85C00F4
:1010F00091468A46C00759D100260127EC68B846B8
:101100007CB995F85C00C0F30010401E30424DD110
:10111000B8F1000F4AD028465146884700270446B8
:10112000B8460EB9260041D037B1214628464A4676
:1011300090470446B04239D00127002CE1D0206806
:1011400005F0FAFF0028DBD1E868A0422ED080B17C
:10115000006800221021C3699847E86800220D2129
:10116000006803F0CFFE012820D1E868006806F08F
:1011700041F8EC60206800220F21C3699847E868B5
:1011800000220C21006803F0BDFE01280ED1E868A2
:10119000006807F09BFAE868006806F02BF8A96978
:1011A000002903D02846BDE8F0470847BDE8F0878E
:1011B0002DE9FC470F0006D0C4686069B84204D12D
:1011C000A069BDE8FC870020FBE7002104230EE0B6
:1011D000A26801EB810052F8202003EB8000BA1ACC
:1011E0000192A568285A90420AD2491C89B2608AA5
:1011F000C0F309008842EBD80020C4E90570E2E79B
:10120000284601EB8105122101EB85010026425C95
:101210004FF00609910711D002F003084FF00C0AB5
:10122000B8F1010F0FD0274B08214FF0100CB8F187
:10123000020F12D0D243920725D03EE009EB850180
:10124000405A019907E00AEB850109EB85024158F4
:10125000805A019A895C46182FE0009301EB8508BB
:101260000CEB8502825A50F80810022301A807F0FF
:10127000ABF910B3A16851F80820801A09EB850278
:101280004008895A18E0009301EB85080CEB8502B1
:10129000825A50F80810022301A807F095F960B1AE
:1012A000A16809EB850351F80820801A42080AEB6F
:1012B00085000858C95A805C0E18C4E90576304686
:1012C0007FE70000AF8800087CB5C368C0680025D0
:1012D0005B8AC4689B042CD4A36801EB022013F042
:1012E000407F04D0C3F30161012910D02DE02668AE
:1012F000ADF80400164823F07F42009002233146E7
:1013000001A807F061F900B3801B40080EE02668D1
:10131000019010480090A068042320F07F423146DD
:1013200001A807F051F980B1801B000961680D56D2
:101330000BE06368585C995C38B131B1637B22681B
:10134000401E00FB0320491E455628467CBD000078
:10135000AD130008991300080021A0F13002092AFA
:1013600001D8D1B216E0612801D32038C0B241388B
:1013700006280FD2DFE800F0030507090B0D0A214C
:1013800008E00B2106E00C2104E00D2102E00E2113
:1013900000E00F210846704703880A88934201D075
:1013A000981A704740884988401A704703780A782D
:1013B000934201D0981A704740784978401A704794
:1013C00010B52821074805F0E0F906F0BBFE0649F4
:1013D000002303224860BDE810401E21034806F0A8
:1013E0007BBD000004290020340C0020AD0F000854
:1013F00070B54168044611B1206800F01FF80D482F
:1014000005F0CDF9050014D094F82400282220F02E
:10141000040084F8240021462846FEF7A5FE6A68E9
:101420001AB1288A01B22868904703490120087040
:1014300070BDFEE704290020340C00202DE9F047A0
:1014400081468A460026134805F086F9044601279E
:10145000DFF8448018E021460E4805F082F9216843
:10146000054649450FD16168514502D0BAF1000FD8
:1014700009D12146074805F03DFA204605F0A4FAB7
:1014800088F8007001262C46002CE4D13046BDE8D7
:10149000F087000004290020340C0020028BB0F9F2
:1014A0001A108A4202D14FF4806102E0890291FB56
:1014B000F2F1D0E90423981A484302EBA02000B2CD
:1014C00070478B1A002B00DC531A4FF47A714B4390
:1014D00093FBF0F0B0F5803F02D34FF6FF7001E0D0
:1014E00000B9012080B27047B0F90410B0F90020B3
:1014F000891AB0F90620B0F90200101A401C491CE4
:101500004843704781880088081A401C00B2704721
:1015100070B5B1F90030B2F90040A34200DC2346B7
:101520000380B1F90250B2F90240A54200DD2C4619
:101530004480B1F90460B2F90450AE4200DA354695
:101540008580B1F90610B2F90620914200DB114600
:10155000C1800120AB4201DC8C4200DD002070BD67
:1015600010B5B0F90030B1F900400022A34212DBFF
:10157000B0F90230B1F90240A3420CDBB0F90430FB
:10158000B1F90440A34206DCB0F90600B1F9061037
:10159000884200DC0122104610BDB0F90020B1F9EC
:1015A00004309A4213DCB0F90420B1F900309A42B9
:1015B0000DDBB0F90220B1F906309A4207DCB0F930
:1015C0000600B1F90210884201DB012070470020BB
:1015D000704710B5B1F90040B2F900309C4200DA12
:1015E00023460380B1F90240B2F902309C4200DA8E
:1015F00023464380B1F90440B2F904309C4200DD37
:1016000023468380B1F90610B2F90620914200DC2E
:101610001146C18010BD10B5029C018042808380BC
:10162000C48010BD2DE9F0410D46074600F010FAC8
:10163000060003D0384C206808B104E0FEE73046CD
:1016400005F096FD2060606818B9304605F045FD4C
:1016500060601C21304605F0B7FB04002ED0207ED0
:101660002E4961602E49A1602E49E1602E49216119
:101670002E49616120F00F0020762D49304605F09B
:10168000BAFE2C49304605F06AFEC5B1284605F081
:1016900049FD027E217E62F302012176027ED2089C
:1016A00062F3C3012176011D1422201DFEF75CFDAB
:1016B000304605F040FE3046BDE8F081FEE71FB140
:1016C0003046012100F035FE0121304605F041FE93
:1016D00006F02CFD050019D0002130462A6900F0E3
:1016E00058F8012130466A6900F053F8022130466B
:1016F000AA6900F04EF803213046EA6900F049F883
:10170000042130462A6A00F044F8D4E73046616884
:1017100005F0B3FECFE70000780C0020A8270020DA
:10172000E4270020202800205C28002098280020A2
:10173000D51700083917000810B5022A05D0054B47
:101740005B6822B1012A02D002E0002010BD984758
:10175000012010BD780C002010B505F0E3FC007EE0
:10176000C0F3C00010BD70B50C46054605F0DAFCAC
:10177000017E01F00702A2420AD064F30201017661
:1017800000EB840041682846BDE8704005F075BE56
:1017900070BD70B514460D46064605F0C3FC052D18
:1017A0000DD2DFE805F0030507090B00446006E0F1
:1017B000846004E0C46002E0046100E04461017EF2
:1017C00001F0070100EB810041683046BDE8704040
:1017D00005F053BE2DE9F84F564B91460D461B6858
:1017E000834698470446012879D1584605F09AFC6B
:1017F00007465846FFF7B0FF0646072D10D0092DC3
:101800002AD0082D1FD04FF001084FF0000A0A2DF2
:101810001ED0112D58D0002D01D0062D7AD085E094
:10182000387E410704D000F00700022802D07DE096
:10183000012104E0032102E0002100E002215846DA
:10184000FFF791FF72E0484604F0A9F820B96DE077
:10185000484604F0A4F838B1387E00F007000128AB
:10186000EAD00328EAD061E0CDF800A0387E5546E2
:1018700000F00700012800D116B1032806D006E0C9
:1018800000215846FFF76FFF00954FE016B1012881
:1018900007D00EE002215846FFF765FFCDF8008023
:1018A00044E036B102215846FFF75DFFCDF80080D5
:1018B00026E0032801D01EBB38E04EB30021584675
:1018C000FFF751FF00951BE099F80000132807D09F
:1018D000112805D0142809D0122807D026E026E0C8
:1018E0005846FFF739FF0028DCD11FE05846FFF7C4
:1018F00033FF68B100215846FFF735FFCDF800A04F
:101900006A460E21584603F0FDFA044601280ED11E
:101910000CE0FFE74946002051F820201AB1401C96
:10192000C0B20728F8D304A249F820202046BDE819
:10193000F88F0000780C00206C765F62746E0000F7
:10194000B0F90210B0F90000814201DC01207047BB
:1019500000207047028000234380C2F1010008800C
:10196000704710B542880124521C13B24380B1F96C
:101970000020002A03DC04EB4300104407E0028847
:10198000521E0280981A0A8804EB40001044088016
:1019900010BD08B5D308BDF80020890863F3040220
:1019A00061F34A12C00860F3CF22ADF8002090B274
:1019B00008BD78B58BB284B2DD0AC2F1FF014D4398
:1019C000E00A00FB0250050ABDF80000C4F345160A
:1019D00065F3CF20C3F345154D4303F01F0306FB0A
:1019E00002554B4304F01F012D0A01FB023165F340
:1019F0004A10090A61F30400ADF8000080B278BD16
:101A000078B58BB284B2DD0AC2F1FF014D43E00A22
:101A100000FB0250050ABDF80000C4F3451665F34B
:101A2000CF20C3F345154D4303F01F0306FB0255BA
:101A30004B4304F01F012D0A01FB023165F34A10EC
:101A4000090A61F30400ADF8000080B278BD00001F
:101A50002DE9F0410E46074605F0C2F9050003D016
:101A6000274C206808B104E0FEE7284605F080FB1B
:101A700020600221284605F0A7F9284605F052FB10
:101A8000041E2DD06178207821F00F01617020F0C4
:101A9000FF0020701B49284605F0ADFC16B3304608
:101AA00005F040FB014600780209207862F305103A
:101AB00020700A78920962F3871020704B78627860
:101AC00063F3010262704B789B0863F383026270D8
:101AD000097861F303002070284605F02CFC2846A5
:101AE000BDE8F081002FFAD006F020FB10B1C168EC
:101AF000284601E02846044905F0BFFCEFE7000056
:101B0000800C00205D2300083027002010B505F070
:101B100009FB007800F00F0010BD2DE9F8430446E2
:101B200005F028FB804600263746201D04F014FEF1
:101B300014E005F001FB68B90421284605F0B8FB64
:101B400040B9284605F0F2FAC119B8F81E00761C13
:101B5000084407B22946201D04F003FE0500E8D121
:101B6000002E3BD0B8F81E000121381A05B22046DD
:101B700005F03CFC05EBD5704010404206B2201D3C
:101B800004F0FEFD22E005F0D7FAD8B9042128467A
:101B900005F08EFBB0B9284605F0C8FA00EBD0700E
:101BA00006EB600000B2002300901A46214628464A
:101BB00004F078FF284605F0B9FA8119B8F81E003C
:101BC000084406B22946201D04F0D3FD0500DAD1F1
:101BD0002046BDE8F843012105F0FDB8BDE8F883D3
:101BE0002DE9F8438046FFF791FF0546404605F092
:101BF000C1FA0446022D10D0032D11D0042D12D0AD
:101C0000002601250121404605F0F0FBB4F91690AD
:101C100008F1040004F0B4FD27E0B4F91A60F0E71D
:101C200000260225EEE7A08B404206B20325E9E735
:101C300005F082FAA0B90421384605F039FB78B9DD
:101C400033462A4641463846CDF8009004F02AFF34
:101C5000384605F06BFAE18B484408440FFA80F9E6
:101C6000394608F1040004F084FD0700E0D1404645
:101C7000BDE8F843012105F0AEB800002DE9F84FAA
:101C8000804605F077FA0446404605F0A1FA07467B
:101C90000021404605F015FA05F09AFA05460021A4
:101CA000404605F00EFA05F041FA0146B4F91A0073
:101CB000B4F91C20381A821AB4F91E00431992FB99
:101CC000F3F39EB2012E06D92A4406FB1523721E99
:101CD00093FBF2F206E007EBD772521005EBD573D7
:101CE000A2EB6302084400B2009017B20121404603
:101CF00005F07CFBB4F91AA0B4F916B04FF0000956
:101D000008F1040004F03CFD2CE000BF05F014FADB
:101D100018BB0421284605F0CBFAF0B9012E5A462B
:101D200008D95146284605F027FB0AEB07000FFAB1
:101D300080FA03E03946284605F01EFB09F1010050
:101D40001FFA80F9B14508D30099B4F91AA00BEB3A
:101D500001004FF000090FFA80FB294608F104004A
:101D600004F007FD0500D1D14046BDE8F84F012140
:101D700005F031B82DE9FC5F804605F0FBF9074618
:101D8000404605F025FA0190B7F916A008F10400C5
:101D900004F0F6FC04006FD00121404605F026FB5C
:101DA0004FEA0405798BB88B4FF0000908440FFA0D
:101DB00080FB4E46284605F0BFF978BB0421284633
:101DC00005F076FA50BB284605F002FA00EB0B014D
:101DD0000198814208DD5DB3F6B3294608F104009D
:101DE00004F0BFFC054624E0284605F0F1F9F98B24
:101DF000584408440FFA80FB284605F097F94946F5
:101E0000484501DA084602E0284605F08FF9814688
:101E100008212846761C05F04BFA48B9294608F1F6
:101E2000040004F0A6FC054606B90446002DC1D105
:101E30009EB1012E21D0022E26D0B7F91E1001FB33
:101E400016B0019900B2081A761EB0FBF6F00FFA30
:101E500080FBB7F91A6079E001E0002D7ED0002305
:101E6000022241462846CDF800A004F01BFE284679
:101E700005F05CF981466CE082E0002302224146D5
:101E80002046CDF800A036E02646314608F1040091
:101E900004F06FFC8346304605F09AF90446584634
:101EA00005F096F92044019900B2081A032190FB2D
:101EB000F1F004B2304605F039F9A9EB000000EB6F
:101EC000D0710AEB610000B2009023460122414626
:101ED000304604F0E7FD584605F028F9A9EB00006C
:101EE00000EBD0710AEB610000B20090604203B2D7
:101EF00003224146584604F0D5FD29E0204605F06E
:101F00001BF9D8B90421204605F0D2F9B0B9204612
:101F100005F00CF9A9EB000000EBD0710AEB6100B1
:101F200000B20090334601224146204604F0BAFD3B
:101F3000204605F04DF95844304406B2AC4207D073
:101F4000214608F1040004F014FC0446002CD5D10D
:101F500025B1FA8B0AEB0900104400E00AE00FFA01
:101F600080FA294608F1040004F003FC0446250029
:101F70007FF418AF4046BDE8FC5F012104F02BBFA1
:101F8000BDE8FC9F2DE9F8438046FFF7BFFD0546FD
:101F9000404605F0EFF80446052D10D0062D11D06F
:101FA000072D12D0002501260121404605F01EFA1A
:101FB000B4F91A9008F1040004F0E2FB26E0B4F949
:101FC0001650F0E700250726EEE7208B404205B2C9
:101FD0000426E9E705F0B0F898B90421384605F081
:101FE00067F970B94B46324641463846009504F0D1
:101FF00059FD384605F0ECF8E18B484408440FFAE7
:1020000080F9394608F1040004F0B3FB0700E1D180
:102010004046BDE8F843012104F0DDBE2DE9FF5F35
:10202000074605F07FF88146007810F0300F08D1A0
:10203000800906D199F80100810702D110F00C0F38
:102040007ED0384605F096F80546384605F088F803
:10205000834605F08FF80146DBF810404A8BDBF829
:102060001400224462F30F048A8BCB8A821A62F333
:102070000F00098B03EB2442C1EB204161F31F40A9
:10208000804662F31F4402A9384605F021F86946EC
:10209000384605F01DF8381D04F0F3FB80F0010010
:1020A0005FEA000A55D047F61840ADF80000ADF8D9
:1020B00002004042ADF80400ADF80600381D04F0FF
:1020C0004BFB2AE005F038F818BBBDF90010B6F953
:1020D0001000814200DB0146ADF80010BDF902009E
:1020E000B6F91210884200DB0846ADF80200BDF9CF
:1020F0000410B6F91400814200DD0846ADF8040072
:10210000BDF90610B6F91600814200DD0846ADF8AB
:1021100006003146381D04F024FB0600D2D1BDF87C
:102120000000698B401AADF80000BDF80400A98BCF
:102130000844ADF80400BDF80200E98A401A00E046
:10214000BCE0ADF80200BDF80600298B0844ADF8EC
:10215000060099F80000DDE90256C0F301100128DD
:1021600004D0022805D0032813D105E0BDF80000F3
:102170000DE064F30F050CE0BAF1000F06D0BDF9D5
:10218000000021B2884202DB084600E020B260F382
:102190000F0599F800008009012804D0022805D015
:1021A000032815D105E0BDF804000FE068F30F0621
:1021B0000EE0BAF1000F07D0BDF904100FFA88F055
:1021C000814203DD084601E00FFA88F060F30F0654
:1021D00099F8010000F00300012804D002281CD067
:1021E000032805D10FE0BDF8020000BF60F31F45D2
:1021F00099F80100C0F38100012810D0022850D0C6
:10220000032811D142E0BAF1000F06D0BDF9021047
:1022100020148142EADA0846E8E72014E6E7BDF830
:10222000060000BF60F31F46B7F9100029B28842CC
:102230000ED1B7F912002914884209D1B7F9140058
:1022400031B2884204D1B7F916003114884235D032
:10225000384604F0CFFF3D617E61384604F0CAFF86
:10226000FB6902AA022138469847DBF81C30584621
:102270003A4601219847384604F01EFF10B138460F
:1022800005F038F8381D04F067FA15E0BAF1000FD0
:1022900007D0BDF906104FEA28408142C2DD08464A
:1022A000C0E74FEA2840BDE70022E36903219847D1
:1022B0002146381D04F055FA0400F5D1BDE8FF9F12
:1022C00070B50546FFF722FC04460021284604F0BD
:1022D000F8FE00282CD0002C2AD0012C14D0022C7F
:1022E00017D0032C15D0042C13D0052C16D0062C97
:1022F00014D0072C12D0082C15D0092C18D1284640
:10230000BDE87040FFF7BABC2846BDE87040FFF753
:1023100004BC2846BDE87040FFF762BC2846BDE813
:102320007040FFF72FBE2846BDE87040FFF722BD82
:1023300070BD70B50C46054604F0F4FE017801F05E
:102340000F02A24209D064F3030101702846EB6931
:10235000BDE8704000220121184770BD2DE9F04111
:102360001F4B14460D461B68074698470646012832
:1023700033D1042D08D0012D06D0022D0BD0032D12
:1023800005D0062D1CD027E03846FFF799FF3846C8
:10239000FFF744FE20E0384604F01AFFA1882288A7
:1023A000891A491C09B28842EED1384604F0BEFEB3
:1023B000E1886288891A491C09B28842E4D10BE09D
:1023C0005FF0000154F8210018B1491CC9B2072977
:1023D000F8D304A044F821003046BDE8F0810000A5
:1023E000800C00206C765F636F6E74002DE9F04105
:1023F0000D461E46174604461C21FDF7CEFEC4E9D5
:102400000057C4E90256BDE8F081000038B5044623
:102410002421FDF7C2FE00204FF4A071E06021806E
:10242000F02161806060074AA16812680092BDF8DF
:10243000002021F00201A28341F001012062A1608D
:10244000606138BDD8AC000870B50546254804F079
:10245000A6F9040017D024222946FDF785FE202185
:1024600004F5A070FDF799FE4FF4807104F140006F
:10247000FDF793FE482104F1280004F086F91A4D77
:10248000286808B101E0FEE72C602E6800202C606F
:102490000146C4F8600104F0A3FC00216063084613
:1024A00004F09EFC0021A063084604F099FCE06360
:1024B0000E49A06B04F0E1FF0C49E06B04F0DDFF76
:1024C000606B04F097FE234603221E2108482E600D
:1024D00005F002FD606218B105F0F2FD204670BD06
:1024E000FEE70000E0280020280C00200426002041
:1024F000D92500084068816921F001018161704798
:1025000018B904480068002802D0007A00F00100E1
:1025100070470000280C00204068704701480068A0
:1025200070470000280C002010B90748006828B147
:10253000017A890705D4B0F9000070474FF4A07004
:102540007047B0F902007047280C002010B518B988
:10255000FFF7E4FF002800D0C06B10BD10B518B91C
:10256000FFF7DCFF002800D0806B10BD10B518B954
:10257000FFF7D4FF002800D0406B10BD10B907480A
:10258000006828B1017A890704D4B0F902007047C5
:10259000F0207047B0F9000070470000280C0020C0
:1025A0004068016819B1406808B1012070470020F7
:1025B000704700B50246B0F90030B0F9020043435D
:1025C0001046FFF7EDFF28B15068C068984201D16E
:1025D000012000BD002000BD2DE9F84F044605F0A4
:1025E000B1FD0090E0683E4C606005F0BDF805F07C
:1025F0005BF86068B0F8601189056CD0A246FFF7FF
:10260000D8FFE8B35546DAF80400FFF785FF044623
:1026100005F09CF9A069C007FCD1A1682068894633
:10262000814200D1606880466868FFF77DFF0746F9
:102630000024AA462BE00A1992F840212ABB01EB9C
:10264000C40131F9402FB1F90250898807FB0523F5
:102650005E00891A491C09B24FEA410B0BE000BF2A
:1026600008EB060109EB06005A46FDF77DFD6D1CDF
:1026700006EB47062DB2DAF8040000EBC40000E0D8
:102680000DE0B0F94600A842EADA641CA4B2DAF818
:102690000410B1F86021C2F30902A242CBD8DAF8E3
:1026A00004004FF4807154464030FDF776FD6068B9
:1026B000202100F5A070FDF770FD60680021C0F8D2
:1026C0006011806938B1009805F036FD01466068F8
:1026D000226883699847BDE8F84F00F073B800009E
:1026E00024000020002809D0082808DA084B03EB52
:1026F000800050F8040C405C5043000A70470123EE
:1027000003EB41015143400091FBF0F0C0B2704730
:102710003400002070B515460E46044604F0EAFF6A
:10272000FFF7EEFEB4EB660F04DBC6F34F040CB10B
:10273000641EA4B2B4EB650F04DBC5F34F0424B1EF
:10274000641EA4B20CB1201A84B2204670BD70B5CC
:1027500086B01C461546102B31D3FB2C00D9FF2424
:102760000A46014601A8FEF7D3FE002827D004F050
:10277000C1FFFFF7D1FEBDF80410028A2B46891A6B
:10278000ADF80C10BDF80610428A891AADF80E108B
:10279000BDF80810028A891AADF81010BDF80A10A9
:1027A000428A891AADF81210818A8668008A03AAC3
:1027B000081A401C01B23046009405F0D9FF06B05B
:1027C00070BD000010B5054C2068002804D004F04E
:1027D000FBF800202060606010BD00002C0000208D
:1027E00010B50C4C224661681268884201D8104628
:1027F00010BD60603AB10146104604F029F920602E
:102800000028F5D1FEE704F0B1F820600028EFD1F0
:10281000FEE700002C0000202DE9FF4F9BB015467D
:10282000DDE928878246DDF8B490526A0392B80742
:1028300007D4BAF80410BAF80000081A401C00B215
:102840000DE0B5F92A0047F618418DE88300B5F987
:102850002830414605A805F03FFDBDF9140002905F
:102860000398698D2A9A007A08440FFA80FBBAF817
:102870000000ADF81000BAF902100020ADF81210F7
:1028800005903AB1B2F900000590B2F90200014496
:10289000ADF812100024631EB9F1000F1ED0E8B984
:1028A000BAF90210D9F80820501A002800DC881A5A
:1028B000CBF100014FF4806202EB4101884201DD5F
:1028C000C9F80030D9F80000002807DB0446BDF83D
:1028D0001210B9F804000844ADF81200DDE9023125
:1028E0000097B5F9282008EB040005F079FC0619DB
:1028F0002CE0DDE902310097B5F9282008EB06004D
:1029000005F06EFC34460619BDF81210B9F1000F3F
:1029100001EB0B0000B2ADF8120013D010F5806F80
:1029200010DBD9F8000000280CDAC9F80040BDF926
:102930001210BAF90200091AC9F80410BAF9021003
:10294000C9F8081018F80400002870D01C98BDF9C8
:102950001210B0F9020059448142CADB780716D53B
:10296000301B009781B2B5F9283008EB0400039AB8
:1029700005F00AFD81465046FEF7C4FDA0EB0900B4
:10298000BDF8101000EBD07001EB600014E03807C8
:1029900014D5301B009781B2B5F9283008EB04003C
:1029A000039A05F0F1FC81465046FEF7ABFDBDF8F9
:1029B0001010A0EB09000844ADF810001E98FF2885
:1029C00010D095F82C104143080A19900020079068
:1029D000994909A804F0E2FF688CADF82800ADF829
:1029E000260020E195F82C00EFE72A9828B1BDF8E1
:1029F000101005980844ADF810004FF00009069437
:102A0000C3E08E4C06A9404622689047089006997C
:102A1000226808EB0100002190470246F80710D019
:102A20000898232804D0B9F1010F1BD009E0FFE07A
:102A3000B9F1000F0BD0B9F1010F0DD0B9F1020FB0
:102A40000ED0286A1A90B9F1020F56D057E00698B6
:102A500080B20790012010E04FF00009286A4DE095
:102A600000200AE00898202808D1DDE90610081A9D
:102A7000072804D0288C18900220814685E0079909
:102A800008EB0100016800918088ADF80400002087
:102A90008DF806009DF80100FEF75EFC04469DF8E7
:102AA0000000FEF759FC04EB001108919DF80300AB
:102AB000FEF752FC04469DF80200FEF74DFC04EBC5
:102AC00000199DF80500FEF747FC04469DF8040038
:102AD000FEF742FC04EB0010C308BDF800000899A3
:102AE00063F304004FEA990262F34A10C90861F3E4
:102AF000CF20ADF8000080B2BDE718981A90089971
:102B0000039802F092FA04B22B994FF6FF708142BB
:102B100026D02C99814223D0494A40460699126812
:102B200090472B9988421BDD2C99884218DCBDF810
:102B30001010ADF80010BDF81200ADF802002A8D9B
:102B4000199B0A44611E1144ADF80410ABF1010158
:102B50000844ADF8060009AA68461C9900F022FA5C
:102B600019980190BDF86800ADF8000004A8089B12
:102B7000039A1C9900F066F8002C06DDBDF81000E1
:102B8000298D01440819ADF810000698B042FFF4F1
:102B900038AFDDE90231009708EB0600B5F92820CF
:102BA000814605F01DFB34460619BAF80000ADF861
:102BB0001000780715D5301B009781B2B5F9283081
:102BC0004846039A05F0E0FB81465046FEF79AFC22
:102BD000A0EB0900BDF8101000EBD07001EB600015
:102BE00013E0380713D5301B009781B2B5F92830B0
:102BF0004846039A05F0C8FB81465046FEF782FC22
:102C0000BDF81010A0EB09000844ADF81000BDF8A5
:102C1000121001EB0B001C9900B2ADF81200B1F9D3
:102C20000610884204DC18F8040000287FF4DDAEAA
:102C30001FB0BDE8F08F0000F4260020640C0020D7
:102C4000700C00202DE9F04F9FB00446A9A09846D3
:102C500000681D90A8A0174600681E90A7A00E4609
:102C60000FC819AD85E80F002998102871D3FB28EB
:102C700001D9FF202990002F6BD00023424606A9DE
:102C8000384602F099F9002863D020889DF91C107D
:102C9000084405B2387A797A401A618801449DF86F
:102CA0001B00081A9DF91D10401A04B29DF81E0061
:102CB000012809D002280BD0042846D0082848D182
:102CC00000200C90FF2006E01DA80C90802002E060
:102CD0001EA80C90C02081464146384602F06AF991
:102CE000070036D09DF81A00B6F900102844884233
:102CF0002FDBB6F90400A8422BDB9DF81B00B6F9C8
:102D000002102044884224DBB6F90600A04220DBF2
:102D100004F0F0FC1490FFF7FFFB818AB0F910A0DB
:102D20008046A1EB0A00401C00B20F909DF81E10D7
:102D30009DF81A008E4600FB01F2B6F90010D8F893
:102D400008B0A94206DC002105E019A80C90F0208B
:102D5000C1E7CBE0491B09B20891B6F90410431949
:102D60008B4201DD481B401C00B20990B6F90200FD
:102D7000A04201DC002000E0001B9DF81B10B6F90A
:102D8000063001EB040C00B29C4501DD191B491C07
:102D900009B21791B8F912100F9E631A0F9910908B
:102DA00003FB0153A3EB0A030BEB4301089B00FB5E
:102DB000063301EB430A00FB02F1089BBDF8A000BB
:102DC00003FB0E11169007EBD10B01F007061098CC
:102DD00088E000BF29FA06F01290089F66E000BF65
:102DE0009DF81E00C6F108010B1A9BF800201299ED
:102DF0000A40DA4045D02999FF2921D0082824D05B
:102E00000C98805C4843020A1498D0F814C0BCF1B6
:102E1000000F1DD002921698ADF804001098011909
:102E2000B8F81200081A00B20090B8F8100079192A
:102E3000081A03B2D8F808100F9A1498E04720E057
:102E40000828E1D00C98825CDEE74A43120ADBE7EF
:102E5000BAF80000BDF8A010884212D0FB2A01D9B0
:102E600016990CE0102A0CD9BAF80000ADF804004D
:102E700001992898FEF79DFD0190BDF80410AAF86D
:102E800000109DF81E000AF1020AC0F10801B142CB
:102E900005DD81198EB21299C140129104E000261D
:102EA0000BF1010BCDF848907F1C3FB20998874287
:102EB00096DB9DF81A10091A089808449DF81E1010
:102EC00000FB016080B20BEBD00B00F00706DDE9E0
:102ED0000810411A0F98411A10980AEB410A401C39
:102EE00000B2109017998842FFF674AF1FB0BDE88A
:102EF000F08F000000FF00000055AAFF00112233F0
:102F0000445566778899AABBCCDDEEFFFFB583B048
:102F10000D460C9C0646102C2CD3FB2C00D9FF240C
:102F2000B2F90000B04225DCB2F90400B04221DB66
:102F3000B2F90200A8421DDCB2F90600A84219DB72
:102F400004F0D8FB0746FFF7E7FA828A018A521A93
:102F5000711A0BB2418A521C691A0EB2BDF81810D0
:102F60007D6912B245B10294ADF8041000968168F3
:102F70003846A84707B0F0BD806806FB023200EB78
:102F80004205FF2C0CD02888ADF80000224600999D
:102F90000698FEF70EFD0090BDF800002880E9E7D6
:102FA0002980E7E72DE9F04105460F46C08869888A
:102FB0001E46401A401C00B2144601283DDBA8887A
:102FC0002988401A401C00B2012836DB608A18B1FB
:102FD0003946284601F0E6FB39462846FEF7DDFA79
:102FE00000282AD0207A10280DD9334622463946A7
:102FF000284601F043FBE08828B133462246394693
:10300000284600F029FFA089002816D0A07B0028C0
:1030100013D0E07B102810D3334622463946284689
:1030200000F044FDE088002807D0334622463946A8
:103030002846BDE8F04100F003B8BDE8F08100008B
:103040002DE9FF4FA7B00646D08898461546079051
:1030500004F050FBFFF754FA0746B5F90C006989F4
:10306000ADF87810AC7BE97BB8F1FF0F02D001FB23
:1030700008F1090A401E00B206910C9017B1401EDB
:1030800000B20C90B18830887288081A401C01B2D6
:10309000F088801A401C02B20798FFF73BFB0790AC
:1030A0003288C119501800B20F90728816901144DE
:1030B00009B260F30F0A60F30F081291F2880798C3
:1030C00061F31F4A101AC01B02B21092B38807980E
:1030D0001392181AC01B00B260F30F0960F30F0BB4
:1030E0000E90CDE91401079862F31F4862F31F4B5D
:1030F00002B261F31F4924A901A80A92FEF72AFC33
:103100000C990798401A02B2161E00DA002225A96F
:1031100011A8FEF71FFC00200C900A981D900020BB
:10312000CDE90A60CEE200BFBDF94620BDF94430CA
:103130009A4203DAC11A09B21A9104E0411A09B29B
:103140001A91491E09B21991002F7DD01D9988420C
:103150007BD0BDF906101B910C9A891A09B2079110
:103160001D99002661F30F0062F31F401790D1E014
:10317000069A0128314602DDFDF764FF04E0FFF7FF
:10318000B1FA0699081AC0B20C90E0075BD020078C
:1031900028D50C984FEA2B412191009017980014E4
:1031A00020900844304401B217981D906A89584411
:1031B000ADF89820401C00B2269B289AFFF7A6FE87
:1031C0000C9800901D9821996A890844401C01B20E
:1031D0002098ADF888205844304400B2229B289AA9
:1031E000FFF794FE60072ED50C98009017984FEAD1
:1031F000284121900844401C0FFA80FC1798209128
:1032000000141C906989A8EB0000ADF89810801B91
:1032100000B26146269B289AFFF778FE0C98009032
:1032200020991C98289A084430440FFA80FC219871
:103230006989A8EB0000ADF88810401E00B2614615
:10324000229BFFF763FE01E0F0E06CE0A0075FD592
:1032500060072ED50C98009017984FEA2A41001469
:103260001D90081A801B0FFA80FC1798219020915E
:103270006989AAEB0000ADF89810401E00B26146C3
:10328000269B289AFFF742FE0C980090DDE920105B
:10329000081A401E0FFA80FC1D986989AAEB0000ED
:1032A000ADF88810801B00B26146229B289AFFF778
:1032B0002DFE20072CD50C984FEA29412191009032
:1032C00017982090081A401E0FFA80FC1798289A29
:1032D00000141C9069894844ADF89810304400B23D
:1032E0006146269BFFF712FE0C98009021991C98CE
:1032F000289A081A801B0FFA80FC20986989484494
:10330000ADF88810401C00B26146229BFFF7FEFD1D
:10331000761C36B207988642FFF62AAFBDF9040044
:103320001D901B980C90BDF944100A9881427DD0E5
:10333000BDF906100B9A1B91891A09B21791014623
:1033400061F30F0062F31F4000261C910790CFE04D
:10335000069A0128314605DDFDF774FE0699081A24
:10336000C0B201E0FFF7BEF90A90E0072DD02007B8
:1033700016D50A98009007984FEA2B4101EB2040A0
:10338000304407990FFA80FC0BEB01006989ADF816
:103390008810401E00B26146229B289AFFF7B6FDB6
:1033A000600712D50A9800900798079A00EB28400A
:1033B000401E01B2A8EB22406A89ADF88820801B2C
:1033C00000B2229B289AFFF7A1FDA0072BD560072A
:1033D00014D50A98009007984FEA2A41A1EB2040A3
:1033E000801B01B207986A89AAEB0000ADF888201B
:1033F000401C00B2229B289AFFF788FD200712D5B7
:103400000A9800900798079AC0EB2940401C01B227
:1034100009EB22406A89ADF88820304400B2229B33
:10342000289AFFF773FD0B98304400E069E01C997F
:10343000081A01285AD0E0072BD0200712D50A9885
:1034400000900798079A00EB2B40401E01B20BEB4F
:1034500022406A89ADF88820304400B2229B289A25
:10346000FFF754FD600714D50A98009007984FEABB
:10347000284101EB2040304401B207986A89A8EB4B
:103480000000ADF88820401C00B2229B289AFFF76C
:103490003DFDA0072AD5600712D50A98009007982D
:1034A0006A89C0EB2A40401C01B20798ADF8882019
:1034B000AAEB2040801B00B2229B289AFFF726FD32
:1034C000200713D50A98009007984FEA2941A1EBED
:1034D0002040801B01B207986A894844ADF88420D7
:1034E000401E00B2219B289AFFF710FD761C36B2D1
:1034F00017988642FFF62CAFBDF944000A901B983E
:103500000B90E00763D020072FD5BDF80400149E70
:1035100019993044411AADF80C00ADF80810139811
:103520000090BDF80610069B0844ADF80A00ADF8FF
:103530000E0002A81E9A2899FFF709F9BDF80600A7
:10354000BDF804103044ADF80800ADF80C00009848
:10355000069B08441A99ADF80E00411AADF80A10FE
:1035600002A81E9A2899FFF7F2F860072FD5BDF838
:103570000600169EBDF80410301AADF80800ADF82C
:103580000C001098009008441999ADF80E00411AEB
:10359000ADF80A1002A8069B1E9A2899FFF7D7F8E3
:1035A000BDF804001A99301AADF808000844ADF8C7
:1035B0000C00BDF806100098069B0844ADF80A0000
:1035C000ADF80E0002A81E9A2899FFF7C0F8A007D0
:1035D0006AD5600733D5BDF9060010990A1812990B
:1035E000081A824213DDBDF804200F99069B891A40
:1035F000ADF80810199AADF80A001144ADF80C1096
:10360000ADF80E0002A81E9A2899FFF7A0F8BDF8A1
:1036100006100F98069B401AADF80800ADF80C0094
:10362000BDF8041012981E9A401A1A99ADF80A00B3
:103630000844ADF80E0002A82899FFF788F8200783
:1036400032D5BDF806100E98159E0844ADF8080056
:10365000ADF80C00BDF804001999301AADF80A0055
:103660000844ADF80E0002A8069B1E9A2899FFF7A1
:103670006EF8BDF9060000EB2B41301A814213DDD4
:10368000BDF804200E99069B11441A9AADF80C104F
:103690008A1AADF80820ADF80A00ADF80E0002A8AD
:1036A0001E9A2899FFF753F824A901A8FEF759F9A3
:1036B000BDF94600BDF94410884203DA25A911A8D6
:1036C000FEF74FF9BDF90610BDF9040081427FF7FE
:1036D0002BAD002F7DD0BDF806000C99401A00B22A
:1036E0000F901D98002760F30F0661F31F460E90A0
:1036F000B3E03946069AFEF7F5FF0699081AC0B2FC
:103700001090E00751D0200726D5109800904FEA7E
:103710002B403214CDE914201044384401B26A8998
:103720000BEB0600ADF86420401C00B2199B289AF0
:10373000FFF7ECFB109800901598149A3044401C49
:1037400001B20BEB02006A89ADF85820384400B290
:10375000169B289AFFF7DAFB600726D51098009091
:103760004FEA284015903044401C321401B2A8EBB7
:10377000020014926A89ADF86420C01B00B2199B44
:10378000289AFFF7C3FB10980090DDE9142010443D
:10379000384401B26A89A8EB0600ADF85820401EF3
:1037A00000B2169B289AFFF7B1FBA00753D560071C
:1037B00028D5109800904FEA2A403214CDE9142001
:1037C000801AC01B01B2AAEB0600401E00B26A8933
:1037D00000E068E1ADF86420199B289AFFF796FB9A
:1037E000109800901598149A801B401E01B2AAEB05
:1037F00002006A89ADF85820C01B00B2169B289AB7
:10380000FFF784FB200726D5109800904FEA294047
:103810001590801B401E321401B209EB0200129277
:103820006A89ADF86420384400B2199B289AFFF7E2
:103830006DFB10980090129A1598801AC01B01B267
:103840006A8909EB0600ADF85820401C00B2169BAF
:10385000289AFFF75BFB7F1C3FB20F988742FFF669
:1038600048AF0C990E98401A002802DC08460E99C1
:10387000401A0F9988424ED11D9860F30F0660F3ED
:103880001F4606984708E00721D020070DD500976E
:1038900006EB2B406A8901B2ADF83C200BEB2640C9
:1038A00000B20F9B289AFFF731FB60070FD54FEA54
:1038B0002840009700EB26406A8901B2ADF83C2011
:1038C000A8EB060000B20F9B289AFFF71FFBA0078A
:1038D00021D560070DD50097C6EB2A406A8901B251
:1038E000ADF83C20AAEB264000B20F9B289AFFF7C8
:1038F0000DFB20070FD54FEA29400097A0EB26408B
:103900006A8901B2ADF8382009EB060000B20E9BBF
:10391000289AFFF7FBFA0A98109060F30F060B98AD
:10392000BDF8461060F31F460A90081A00B200273F
:103930000F90B4E03946069AFEF7D4FE0E90E007E9
:1039400027D0200712D50E9800904FEA2B4000EBAD
:103950002640384401B26A890BEB0600ADF84820D6
:10396000401E00B2129B289AFFF7D0FA600710D5CC
:103970000E98009006EB2840401E01B26A89A8EB21
:103980002640ADF84820C01B00B2129B289AFFF7D2
:10399000BDFAA00727D5600712D50E9800904FEA10
:1039A0002A40A0EB2640C01B01B26A89AAEB0600A0
:1039B000ADF84820401C00B2129B289AFFF7A6FAE7
:1039C000200710D50E980090C6EB2940401C01B28C
:1039D0006A8909EB2640ADF84820384400B2129BB2
:1039E000289AFFF793FA0A9810993844081A012880
:1039F00053D0E00727D0200710D50E98009006EB93
:103A00002B40401E01B26A890BEB2640ADF84820DE
:103A1000384400B2129B289AFFF778FA600712D553
:103A20000E9800904FEA284000EB2640384401B23F
:103A30006A89A8EB0600ADF84820401C00B2129B32
:103A4000289AFFF763FAA00727D5600710D50E98CC
:103A50000090C6EB2A40401C01B26A89AAEB2640BE
:103A6000ADF84820C01B00B2129B289AFFF74EFA0F
:103A7000200712D50E9800904FEA2940A0EB26406F
:103A8000C01B01B26A8909EB0600ADF83820401E60
:103A900000B20E9B289AFFF739FA7F1C3FB20F98AD
:103AA0008742FFF647AF2BB0BDE8F08F2DE9FF4FFF
:103AB00085B01D4691460446B2F8068003F01AFE12
:103AC000FEF71EFD0746A08821886288401A401C28
:103AD00001B2E08899F80F30801A401C02B2B9F99F
:103AE0000C00FF2D01D06B431B0A0393401E99F875
:103AF0000E60B9F80A3005B2ADF808304FF0000A90
:103B00004046FEF707FE8046A84206DAA5EB08000D
:103B1000C01B0FFA80FA284602E008EB070000B24B
:103B2000B9F8061041B1401C0FFA80FB6188B0075C
:103B300064D501EB0B0063E0B00712D52088ADF827
:103B40000000A088ADF804006088ADF8020060882D
:103B5000DDE902232844ADF8060068460699FEF721
:103B6000F6FD30071ED5A088401BADF80000A088E8
:103B7000ADF80400B4F90210B00701D5681C00E0EC
:103B800000200844ADF80200B4F90610F00700D098
:103B9000681C081AADF80600DDE90223684606999C
:103BA000FEF7D5FD70071ED52088ADF800002088EF
:103BB0002844ADF80400B4F90210B00701D5681C20
:103BC00000E000200844ADF80200B4F90610F00748
:103BD00000D0681C081AADF80600DDE9022368462B
:103BE0000699FEF7B4FDF0077ED02088ADF80000FE
:103BF000A088ADF80400E088401B1FE101EB08003D
:103C0000ADF80200E188F00702D0A1EB0B0001E063
:103C1000A1EB0800ADF8060070070BD52088ADF8C1
:103C200000002844ADF80400DDE902236846069947
:103C3000FEF78DFD30070BD5A088ADF80400401BC2
:103C4000DDE90223ADF8000068460699FEF77FFD26
:103C500021885944A1EB0A00ADF80000A188A1EB2E
:103C60000B0101EB0A00ADF80400B0070CD5608829
:103C7000ADF802006088DDE902232844ADF80600B3
:103C800068460699FEF763FDF0070BD0E088ADF8B3
:103C90000600401BDDE90223ADF8020068460699E4
:103CA000FEF755FDBAF1000F73D0B00737D5700796
:103CB00018D52088ADF80000218808EB07000844DB
:103CC000ADF804006188781C41440844ADF8020056
:103CD0006088DDE902232844ADF8060068460699AD
:103CE000FEF735FD300700E0B3E018D5A188A1EB61
:103CF0000800C01BADF80000A088ADF80400618882
:103D0000781C41440844ADF802006088DDE90223D4
:103D10002844ADF8060068460699FEF718FDF0073E
:103D200037D0700719D52088ADF80000218808EB3E
:103D300007000844ADF80400E088401BADF802001D
:103D4000E188DDE90223A1EB0800C01B401EADF8AD
:103D5000060068460699FEF7FAFC300719D5A188D7
:103D6000A1EB0800C01BADF80000A088ADF804006E
:103D7000E088401BADF80200E188DDE90223A1EBF9
:103D80000800C01B401EADF8060068460699FEF705
:103D9000DEFCB9F8060000285BD116F0060F13D040
:103DA0002088ADF8000020883844ADF80400608811
:103DB000ADF802006088DDE902233844ADF8060062
:103DC00068460699FEF7C3FC16F00A0F13D0A088C8
:103DD000C01BADF80000A088ADF804006088ADF805
:103DE00002006088DDE902233844ADF80600684629
:103DF0000699FEF7ACFC16F0050F13D02088ADF83D
:103E0000000020883844ADF80400E088C01BADF8FD
:103E10000200E088ADF80600DDE902236846069955
:103E2000FEF795FC16F0090F13D0A088C01BADF863
:103E30000000A088ADF80400E088C01BADF80200C7
:103E4000E088ADF80600DDE9022368460699FEF732
:103E50007EFC09B0BDE8F08F2DE9FF4FAFB00446FE
:103E600031981E46B0F8068003F044FCFEF748FB8C
:103E700017903198FF2E4088ADF8080031984068BF
:103E800004903198007A01D07043000A0590E088D0
:103E90006188401A401C0FFA80F9A08821884A46A0
:103EA000401A401C01B24046FEF734FC014609901E
:103EB00017982288084411180EB261880B9608449E
:103EC00000B21590E288099966F30F05521A179906
:103ED00060F31F45AA46511A0DB266F30F0765F34A
:103EE0001F470A970D95A28809998046521A17997B
:103EF000511A0FB2594667F30F0160F31F4113982F
:103F00000E9567F30F0065F31F408B4613900999D8
:103F100008970AB22CA901A82092FDF71BFDBDF855
:103F20000610681800B20090BDF8040029443A1841
:103F300013B20AB2301A01B222A8FDF76CFBBDF829
:103F40000410681800B20090BDF8060029443A1821
:103F500013B20AB2301A01B224A8FDF75CFBBDF817
:103F60000620BDF80410A8EB020000B200907818FB
:103F700003B2A8EB020002B2701A01B21CA8FDF74E
:103F80004AFBBDF80420BDF80610A8EB020000B201
:103F90000090781803B2A8EB020002B2701A01B2C6
:103FA00018A8FDF738FB00201490DDF88080BFE1F1
:103FB000179800287ED0BDF904104145FAD0149915
:103FC000BDF906001B90401A0F4600B209990C90EB
:103FD000A1EB0800C0EB0021B1FBF9F0C5B22A4605
:103FE00002990498FDF70CFD26902A460499029840
:103FF000FDF706FD00252790ADE0059A012829462A
:1040000003DDFDF71FF8064604E0FEF76BFB05999C
:10401000081AC6B20E99219101EB08000899119176
:104020003944401C294400B20FFA81FC0146009635
:104030006046279B309AFEF769FF00960A98279BF7
:10404000011401EB080020910A991F91C91B401C23
:10405000491B00B20FFA81FC01466046309AFEF718
:1040600055FF4FEA2A41A1EB080000961E91AAEBEA
:104070000701401E491B00B20FFA81FC0146604651
:10408000269B309AFEF742FF4FEA2B41A1EB080036
:104090002A910BEB0701401E294400B20FFA81FC64
:1040A000014600966046269B309AFEF72FFF149932
:1040B000099800E057E0401A2844C0EB0021B1FB0A
:1040C000F9F0C0B20246039004990298FDF798FCFB
:1040D000009628902199289BC819284411990FFA15
:1040E00080FC01EB0800401C00B26146309AFEF7EC
:1040F0000DFF20990096C81928441F990FFA80FCDB
:10410000A1EB0800401E00B26146289B309AFEF7E2
:10411000FDFEDDE903200299FDF772FC0096289070
:104120001E99289BC81B401B01B2AAEB0800401E29
:1041300000B2309AFEF7EAFE2A990096C81B401B8F
:1041400001B20BEB0800401C00B2289B309AFEF72E
:10415000DDFE6D1C2DB20C988542FFF64EAFBDF909
:1041600004801B9814900027BDF906100D98BDF926
:104170008A2008443E463D46904200D00126BDF9C3
:1041800004000D9ABDF9923002449A4200D00125F4
:10419000159A511ABDF97220914200D00127159944
:1041A000091ABDF96200814219D00499BDF80820AE
:1041B00089B28A4201D1029A0CE0B4F90610081AB9
:1041C000C0EB0021B1FBF9F0C2B204990298FDF7EF
:1041D00017FC024618A8059B3099FEF7B8FADFB124
:1041E0000498BDF8081080B2814201D1029A0EE015
:1041F000B4F90600BDF97210401AC0EB0021B1FB02
:10420000F9F0C2B204990298FDF7FAFB02461CA825
:10421000059B3099FEF79BFADEB10498BDF80810B3
:1042200080B2814201D1029A0EE0B4F90600BDF9D4
:104230008A10401AC0EB0021B1FBF9F0C2B2049918
:104240000298FDF7DDFB024622A8059B3099FEF798
:104250007EFADDB10498BDF8081080B2814201D128
:10426000029A0EE0B4F90600BDF99210401AC0EBB4
:104270000021B1FBF9F0C2B204990298FDF7C0FB2E
:10428000024624A8059B3099FEF761FABDF80600A6
:104290000E9F089E391809B20091BDF804100D9DBB
:1042A000721813B2284402B20B980C90401A01B253
:1042B00022A8FDF7B0F9BDF80400391809B2009141
:1042C000BDF806102844721813B202B20C98401AB6
:1042D00001B224A8FDF79FF9BDF806004FEA2B476D
:1042E000391A09B20091BDF804104FEA2A460BEBC7
:1042F000010213B2301A02B2AAEB010001B25D460C
:104300001CA8FDF788F9BDF80400391A09B200911C
:10431000BDF80610301A6A1813B202B2AAEB0100F7
:1043200001B218A8FDF777F92CA901A8FDF719FB30
:1043300001A8FDF705FB00287FF43AAE0498BDF80C
:10434000086085B2AE4201D1029A0EE0B4F90600CF
:10435000BDF96210401AC0EB0021B1FBF9F0C2B206
:1043600004990298FDF74CFB024618A8059B30996A
:10437000FEF7EDF9BDF96210BDF97200814215D06A
:10438000AE4201D1029A0CE0B4F90610081AC0EB53
:104390000021B1FBF9F0C2B204990298FDF730FB9D
:1043A00002461CA8059B3099FEF7D1F9AE4201D117
:1043B000029A0EE0B4F90600BDF98A10401AC0EB6B
:1043C0000021B1FBF9F0C2B204990298FDF718FB85
:1043D000024622A8059B3099FEF7B9F9BDF9920073
:1043E000BDF98A10884215D0AE4201D1029A0CE084
:1043F000B4F90610081AC0EB0021B1FBF9F0C2B203
:1044000004990298FDF7FCFA024624A8059B30990E
:10441000FEF79DF9179800287ED009982188801C06
:104420000844ADF86000A1880998081A801EADF80C
:1044300064006088ADF862006088ADF8660031986D
:10444000059B4088ADF80C0018A8039A3099FEF738
:104450007EF9E088ADF86200E088ADF8660031983A
:10446000059B3099426818A8FEF771F91499BDF8B8
:10447000060068F30F05401A61F31F450E9100B264
:1044800009991790A1EB0800C0EB0021B1FBF9F0EE
:10449000C4B2224602990498FDF7B2FA2790224648
:1044A00004990298FDF7ACFA0024269093E0214687
:1044B000059AFEF717F905992F14081AC6B2139832
:1044C0000096001421902844401C01B213981B90C0
:1044D0003844204400B2269B309AFEF717FD009620
:1044E0000A98269B001420902844401C01B20A9888
:1044F0001F90C01B001B00B2309AFEF707FD4FEA69
:104500002A4000960F90401B401E01B2AAEB070004
:10451000001B00B2279B00E0ADE0309AFEF7F6FCEE
:104520004FEA2B401290401B401E01B20BEB0700DC
:104530002044009600B2279B309AFEF7E7FC1499BE
:104540000998401A2044C0EB0021B1FBF9F0C0B239
:104550000246039004990298FDF752FA00962890BB
:104560002198289B3844204401B21B98309A284453
:10457000401C00B2FEF7CAFC209800963844204444
:1045800001B21F98289B401B401E00B2309AFEF7D4
:10459000BDFCDDE903200299FDF732FA0096289070
:1045A0000F98289BC01B001B01B2AAEB0500401E00
:1045B00000B2309AFEF7AAFC12980096C01B001BAE
:1045C00001B20BEB0500401C00B2289B309AFEF7AD
:1045D0009DFC641C24B217988442FFF668AF0E99C4
:1045E000A8EB0100002801DCA1EB08001799884224
:1045F00041D14446C8EB0421B1FBF9F0C5B22A46CB
:1046000002990498FDF7FCF906462A460499029897
:10461000FDF7F6F9074605983B46450813980095BF
:1046200004EB204001B21398309A204400B2FEF708
:104630006DFC00950A983B4604EB204001B20A98B5
:10464000309A001B00B2FEF761FCC4EB2A4001B2B5
:10465000AAEB040000B233460095309AFEF756FCF0
:10466000C4EB2B4001B20BEB040000B233460095C3
:10467000309AFEF74BFC33B0BDE8F08F2DE9FF4FC9
:1046800083B01D4616460446B2F8068003F032F8A1
:10469000FDF736FF81467088ADF80000E08861883C
:1046A000D6F804A0401A401C07B2A0882188401AFE
:1046B000401C01B2307AFF2D01D06843000A8346C6
:1046C0003A464046FEF726F807EBD771B0EB610F8C
:1046D0002BDC2188ADF80410A188ADF80810BDF8D6
:1046E00000201FFA8AF18A426188014420D109B270
:1046F000ADF80610E288101A00B2ADF80A00F28890
:104700006AB1B9F1000F04D0891CADF80610801E03
:1047100003E0491CADF80610401EADF80A005B46E8
:1047200001A8009A0499FEF712F807B0BDE8F08FCF
:104730000FFA81F8E188081A05B2F08870B1B9F172
:10474000000F05D008F102080FFA88F8AD1E04E04A
:1047500008F101080FFA88F86D1E2DB2B8F1000FAC
:104760001DDA4FF000081AE0ADF80680ADF80A80B7
:10477000B4F906005146A0EB0800C0EB0020B0FBE6
:10478000F7F0C2B20098FDF73BF902465B4601A87C
:104790000499FDF7DCFF08F101080FFA88F8A84535
:1047A000E2DDC2E72DE9FC41044616460F46D088FB
:1047B000A18822889846891AE2886388491CD21AFF
:1047C000521C09B212B280B2FDF7A4FF05B22068F4
:1047D000009060680190BDF8000069462844ADF87B
:1047E0000000BDF80400401BADF804003846FCF79B
:1047F000B7FE00281ED12068009060680190BDF8C7
:10480000020069462844ADF80200BDF80600401BCE
:10481000ADF806003846FCF7A3FE00280AD1307D2B
:10482000012809D0002805D14346324639462046A2
:1048300000F00AF8BDE8FC8143463246394620467E
:1048400000F00CF9F6E700002DE9FF4F99B098460B
:10485000064602F04FFFFDF753FE03901B99328886
:104860001B984D8AB1887388891AF288C088D21A39
:10487000491C521C09B212B280B2FDF74BFF01462F
:10488000039800EB400008440FFA80FA039828448C
:1048900005B20AF1040020F003004700E81C00F014
:1048A000FC003844FDF79CFF0490384407905246C2
:1048B00017A906A8FDF74EF812E000BFBDF91A20AF
:1048C0000498BDF8181020F81210BDF918200498AB
:1048D000BDF81A1020F8121017A906A8FDF741F824
:1048E00006A8FDF72DF80028E8D11B98B8F1FF0FB6
:1048F00005D0007A00FB08F0010A00200AE0017AE6
:10490000FBE72A1A4A435208B2FBF5F3079A1354FD
:10491000401C00B2A842F4DB318801EB0A0000B26F
:104920000A9060F30F09F1880398A1EB0A01081AB5
:10493000401C00B260F31F49CDF824900390B28868
:104940000026A2EB0A0109B21091159058E0801BD5
:1049500000B2594660F30F011190DDE9032030F9F0
:104960001600024462F31F418B461099314409B28C
:1049700061F30F0413911599014461F31F444EB183
:10498000049901EB460131F9021C081A0FFA80F96B
:10499000002731E00020F9E70798B9F1000F42D075
:1049A000C15D0798A7EB0902805C084440081B9A88
:1049B0004FEA2B41009012918046136911981A9A80
:1049C000FEF7A4FA12995846491C61F31F4083462A
:1049D000099821B200B2814208DD1B9ACDF800800F
:1049E0002114136913981A9AFEF790FA2014401CA8
:1049F0007F1C60F31F44BFB2AF42CDDB761C36B2E2
:104A00000A985645A3DD401C0399ADF82C0001EB34
:104A10000A00ADF82E001099491EADF83010ADF81F
:104A20003200002415E0C05DC1E707981A99035DC4
:104A30001B9802690BA8FDF78AFEBDF82E00401CEA
:104A4000ADF82E00BDF83200401C641CADF83200F9
:104A5000A4B2AC42E9DB1DB0BDE8F08F2DE9FF4FF9
:104A6000A3B01F46804602F045FEFDF749FD0790C2
:104A70002599B8F800202598B1F91260B8F804100B
:104A8000B8F80630891AB8F80220C0889A1A491C6A
:104A9000521C09B212B280B2FDF73CFE07990844DD
:104AA0000FFA80FB012000EB460004B20BEB06007E
:104AB0000690001D20F00300E11C450021F00301D9
:104AC00005EB810108440891FDF78AFE411909911F
:104AD0000899029008440B9029460298FBF75DFB69
:104AE0005A461CA90AA8FCF735FF11E0BDF92A2097
:104AF0000298BDF8281020F81210BDF9282002985D
:104B0000BDF82A1020F812101CA90AA8FCF729FFEA
:104B10000AA8FCF715FF0028E8D12598FF2F06D03A
:104B2000007A7843010A002004FB04F20BE0017ACA
:104B3000F9E7231A4B435B02B3FBF2F5099B43F8F9
:104B40002050401C00B2A042F3DBB8F804100798D4
:104B5000A1EB0B01081A01B21791B8F806001D91DC
:104B6000A0EB0B020798101A00B21690079AB8F83B
:104B700002300BEB02015A1812B20892B8F800305A
:104B8000CDE90C20194409B2199100241891F2E0E2
:104B900000273D460698A84235DB0021734218B233
:104BA00027E0221805D5029A32F814C0ABEB0C02AC
:104BB0000AE05A451FDCDDF808C03CF812C0029A32
:104BC00032F81420ACEB0202521B12B29A4203DA02
:104BD000984210D101270EE0B24202DD099A126814
:104BE00004E0A6EB020C099A52F82C20401C114458
:104BF00000B2B042D5DD0B98090A002F415505F1EE
:104C00000105ADB2C6D002984FF0010730F814107C
:104C10001D9801EB0002484602F1010262F30F0009
:104C2000089AA2EB040212B262F31F408146179861
:104C3000159201EB0002504602F1010262F30F00EF
:104C4000169A224412B262F31F40824618981092BC
:104C5000A0EB01021298A2F1010262F30F000C9A7C
:104C6000A2EB040212B262F31F400F921290199845
:104C7000A0EB01011198A1F1010161F30F000D9961
:104C8000214409B261F31F400E91119068E012981F
:104C9000189900B21E9088420DDA0C990F9888423C
:104CA00009DA0B98259AC05D009013690F991E9838
:104CB000249AFEF72BF91198199900B21F90884297
:104CC0000DDADDE90D01814209DD0B98259A0E9977
:104CD000C05D009013691F98249AFEF717F90FFA28
:104CE00089F01D99209088420DDD08991598884219
:104CF00009DA0B98259A1599C05D009013692098E0
:104D0000249AFEF703F90FFA8AF12191179881424C
:104D10000CDD10991698814208DD0B98259AC05D2C
:104D2000009013692198249AFEF7F0F821985146D3
:104D3000401C60F30F018A461F981199401E60F3D2
:104D40000F01119120994846491C61F30F008146DB
:104D50001E981299401E60F30F017F1CBFB2129182
:104D6000AF4294D32CB9DDE9241240460B9B00F0EE
:104D700009F8641C24B20698A042BFF609AF27B018
:104D8000BDE8F08F2DE9F0438FB09846164689466E
:104D9000044602F0AFFCFDF7B3FBA18822886388CC
:104DA000891AE2880546F088D21A491C521CB6F9C5
:104DB000127009B212B280B2FDF7ACFC4119A088A2
:104DC0004A19431B5B1CADF81030B4F802C0ADF8B3
:104DD00014300CEB0200ADF81200E0886B1E401A94
:104DE000401BADF81600B4F800C00CEB0300ADF8A2
:104DF0001800B4F802C0ADF81C009444ADF81AC015
:104E0000E088401A401BADF81E0020881044ADF821
:104E1000000060880344ADF80230A088401A401BAF
:104E2000ADF80400ADF8063020881044ADF8080055
:104E3000E088421B521CADF80A20A088401A401B93
:104E4000ADF80C00ADF80E20012443E018F8045032
:104E500049462B4604A83269FDF779FCBDF81000DD
:104E60002B46401CADF81000BDF814004946401C0C
:104E7000ADF8140006A83269FDF769FCBDF818000A
:104E80002B46401EADF81800BDF81C004946401ED8
:104E9000ADF81C0068463269FDF759FCBDF8020008
:104EA0002B46401EADF80200BDF806004946401EE4
:104EB000ADF8060002A83269FDF749FCBDF80A000A
:104EC000401CADF80A00BDF80E00401C641CADF893
:104ED0000E0024B2BC42B9DD0FB0BDE8F08338B596
:104EE00005460092B1F90240B1F90630B1F904204B
:104EF000B1F900002146FBF775FE2846BDE83840B1
:104F0000FDF7F8BA30B438B113460A468469014651
:104F1000204630BC00F004B830BC012070470000CF
:104F20002DE9FE4306460020194C00918DF804003F
:104F300002906068984691460D4600B10290C4F810
:104F400004D0A768C4F8088000F016FD18B1826884
:104F50000AB14946904716B149462846B047A7606E
:104F60006068806860609DF8040060B975B195F86C
:104F7000300000060AD5286840B142464946FFF78E
:104F8000C1FF012802D00020BDE8FE830120FBE71D
:104F90001800002010B5C468FCF70AF9002808D0F2
:104FA000616811EBC00004D000682168C0F31300F1
:104FB000084410BD4268104730B40468A44630BCB1
:104FC00060472DE9F0470C46994680461146C56872
:104FD000FCF7EEF8071E26D0E868002650B14946D7
:104FE0004046FCF7E5F8020004D039464046FCF79D
:104FF0006BF90646686800EBC70001680A0D298A4C
:10500000714302EB21110831090921804179E170D6
:105010000179A17081792171C0796071688AC0F3CA
:105020008220A0710120BDE8F0871CB513460A4616
:105030006946FFF7C1FF002801D0BDF800001CBD84
:1050400070B50446406860B1026962B1216890475A
:105050000546206801F0B8FC00202060606028460A
:1050600070BD0B2070BD092070BD000010B5044656
:10507000064801F071FB06E00178A14205D0014627
:10508000024801F06EFB0028F6D110BDF828002080
:1050900010B50446FBF78CF881B208E0605C2E285E
:1050A00009D02F2805D05C2803D0491E89B20029D9
:1050B000F4D102A010BD6018401C10BD000000001B
:1050C00005E03A2903D05C2901D02F2903D110F83B
:1050D000011F0029F5D170474821014801F055BB57
:1050E000F82800202DE9F0414FF0000545601746F3
:1050F0000E000446056024D03078FFF7B7FF6060EB
:1051000008B3816809B1884700B36068408801F03E
:105110002DFC2060F0B16068C068E0B13046FFF758
:10512000CFFF0246D4E900103B46C668B0470600F0
:1051300004D0206801F048FC256065603046BDE879
:10514000F0810B20FBE703202560F8E76560012074
:105150002560F4E7FEE70920F1E77CB51C00134663
:1051600002464FF0000600D02660506868B185699D
:105170006DB1019601AE009616680A463146A84701
:10518000002C01D0019921607CBD0B207CBD092041
:105190007CBD30B40346406838B1046A44B11B6832
:1051A000A4460A4630BC194660470B2030BC704705
:1051B0000920FBE770B50C46060025D001F0CCFABB
:1051C00005E00868A0421FD0304601F0CAFA01008D
:1051D000F7D1E06A30B1204602F05EF810B1E06A23
:1051E00000F045F83046E66201F02AFB05000AD0DF
:1051F00030462C6001F0B0FAA84205D13046BDE837
:10520000704000F034B8FEE770BD0000014A02496A
:10521000FBF769BF6367000859670008014A024944
:10522000FBF761BF7367000881670008002803D09F
:10523000C068002800D00068704700006021014865
:1052400001F0A3BA1029002070B504461C300546B1
:1052500002F0A4FB94F85C00800701D5626900E0CD
:10526000226912B1294620469047284670BD70B584
:10527000044690F85C00C0F3001540F0100084F87C
:105280005C000007204602D4FFF7C0FF01E0FFF7F3
:10529000C5FF14F85C0F65F30410207070BD0000AA
:1052A0002DE9F041804611480025114F066817E0AE
:1052B00005EB850006EBC0046068404502D0B8F1FC
:1052C000000F0BD110B1204600F012FB2046242124
:1052D000FAF763FF20462821FAF75FFF6D1CADB295
:1052E00038888542E4D3BDE8F08100003C0C002002
:1052F000540000202DE9F041154C0546206828B1E6
:105300000020FFF7CDFF206801F05EFB05EB850074
:10531000C00001F02BFB206018B10E4E3580002537
:1053200010E0FEE7206805EB850700EBC7002421AD
:10533000FAF733FF2068282100EBC700FAF72DFFAA
:105340006D1CADB230888542ECD3BDE8F081000021
:105350003C0C002054000020014600200F290AD2F6
:10536000DFE801F009090909080A080C0E10120CFF
:105370000E1012001020704718207047012070474F
:1053800002207047042070470820704770B50C6AEF
:105390000D46002C0FD0206820B1FFF751FE206889
:1053A00001F012FB606808B101F00EFB204601F02D
:1053B0000BFB0020286270BD3EB514460D46084622
:1053C00000F0C8FA20B1012812D0022831D02EE016
:1053D00028682168800A60F3942121602868400DC4
:1053E00060F35F512160287860F3040121602CE0B4
:1053F000022229466846FFF775FE68B902AB04220F
:1054000021466846FFF7A9FE05466846FFF718FEE5
:1054100015B90298042818D02068642161F39420FB
:10542000C0F3140000F1486020F01F00206000204D
:105430003EBD2068012161F39420C0F3140000F503
:10544000001020F01F000B30206001203EBD000046
:105450002DE9F04FD7B0074656A00E46006854908D
:1054600055A056A100689B46924655900FC950AC76
:1054700084E80F00B868018E002089B2CAB2090A18
:1054800009E000BF609C00EB4003401CE254609CBC
:1054900000B2234459705845F4DB387C4FF00008C3
:1054A00000F01F00FFF758FF8146012101FA09F1C2
:1054B000491E88B2569000243869214600F01F0228
:1054C00025460B2A06D00C2A14D00D2A24D00E2AE9
:1054D00037D132E0C0F38A20C408400700D0641CF2
:1054E00001EBE60106F0070004FB0A11C0F1070515
:1054F00054A80FE0C0F38A208408800700D0641C01
:1055000001EBA60106F00300062204FB0A11A2EB40
:10551000400555A8804614E0C0F38A204408C0071F
:1055200000D0641C01EB660106F00100042204FBBC
:105530000A11A2EB800550A8ECE7C0F38A2404FB13
:105540000A61387B3E6A80B1091D3068FFF721FE91
:105550000023224669463068FFF7FFFD6A460024B3
:10556000C9F1080120464BB21DE0786880684218F6
:10557000F5E7569E115DAE4031403E7CE94006F0B5
:105580001F060E2E01D018F80110609E00EB400C93
:105590006644B170A5EB09014DB2002D01DA1D463C
:1055A000521C401C00B25845E3DB57B00120BDE857
:1055B000F08F000000FF00000055AAFF0011223309
:1055C000445566778899AABBCCDDEEFF2DE9F04FF4
:1055D0000746007CD1B09B4690460E4600F01F0067
:1055E000FFF7BAFE8146012101FA09F1491E0024A4
:1055F00038691FFA81FA00F01F0225462146072A62
:1056000006D0082A14D0092A23D00A2A38D131E03A
:10561000C0F38A20C408400700D0641C01EBE601F7
:1056200004FB081106F00700C0F10705083127E068
:10563000C0F38A208408800700D0641C01EBA60117
:1056400004FB0811062206F00300A2EB400510310E
:1056500016E0C0F38A204408C00700D0641C01EBA8
:10566000660104FB0811042206F00100A2EB80058C
:10567000403105E0C0F38A2404FB086101F5806134
:10568000387B3E6A88B1091D3068FFF782FD002330
:10569000224669463068FFF760FD69460027C9F178
:1056A0000802384654B25A9B1BE07868806801446F
:1056B000F4E7CA5D0AFA05FC02EA0C02D6F804C057
:1056C000EA400CEB420203EB400C1288ACF80020DD
:1056D000A5EB090255B2002D01DA2546491C401CF4
:1056E00000B25845E5DB51B00120BDE8F08F000065
:1056F0002DE9FC410546087B00260C46012822D1F5
:105700006068FFF7C5FC4AA1FAF759FD28B90222E3
:1057100068466168FFF7E6FC10B10020BDE8FC8137
:10572000206A30B9082001F021F9206248B30660F0
:1057300046600820276A01F019F9386010B3DDE9E6
:105740000012C0E90012207C00F01F0004281AD0CB
:10575000052818D0062816D007281AD0082818D0EF
:10576000092816D00A2814D00B285ED00C285CD04B
:105770000D285AD00E2858D021462846FFF706FE9D
:10578000CBE7FEE7FEE7207B68BB6068806860616E
:105790004CE0FFF7E1FD01278740206A30B908207F
:1057A00001F0E4F8206248B1066046607800804667
:1057B000256A01F0DBF8686008B102E0FEE72868BE
:1057C00030B1207B012804D06068826800202AE084
:1057D000FEE704212868FFF7DCFCD5E9000142461A
:1057E0000023FFF7BAFC20E002EB80018B7891F8F0
:1057F00001C012F820104FEA9C0C4FEAD108BDF806
:105800000010DB0868F304016CF34A1163F3CF2145
:10581000ADF8001089B200916968BDF8003001EB65
:105820004001401C0B80B842DED36661012075E761
:1058300062696E002DE9F84F0C461D461646207C25
:10584000DDE90A32002100F01F00042816D00528E7
:1058500014D0062812D00B283AD00C2838D00D28A6
:1058600036D00E2834D0072839D0082837D0092858
:1058700035D00A2833D00020BDE8F88F277B012FD0
:1058800034D198469246276AFFF766FD8146206923
:10589000C0F38A2005FB006101FB09F1C910091D55
:1058A0003868FFF776FC002100BB4FEAD90500916C
:1058B00005FB08F50C466B462A4651463868FFF74B
:1058C0004CFC0098854201D021460FE001210DE0FB
:1058D00000922A4631462046FFF7BAFD05E00092C5
:1058E0002A4631462046FFF771FE01460846C3E7C7
:1058F0000368DA68002A02D001461846104770474C
:1059000010B5054800F04BFF040004D01421FAF74D
:1059100044FC204610BDFEE71C29002010B51421D0
:10592000074800F032FFFFF7EBFF40B10549016087
:1059300005494160054981600549C16010BDFEE728
:105940001C290020B9530008F156000835580008FA
:105950008D530008032130B10078A0F120015F29A8
:1059600003D80120704708467047802801D30220E1
:1059700070470020704700000148406870470000F1
:105980001000002018B10146024800F0EABE0148AC
:1059900000F0E2BEEC280020002000F00EB8002845
:1059A00005D00178012903D0032901D000207047D8
:1059B00090F84400C0F34000704710B558B110F89B
:1059C000501F41F00201017010BD90F8501041F0DD
:1059D000020180F85010FFF7D5FF0028F5D110BD67
:1059E00010B5124C207800281FD101F021F802F0E8
:1059F00065FAFFF771FBFBF7E3FCFFF71FFC01F013
:105A0000D1FF01F0AFFE4FF4B471094800F0BDFEC4
:105A10006021084800F0B9FEFFF7BEFFFFF77EFFE8
:105A20000120FFF767FC0120207010BD1800002046
:105A3000E0280020EC2800207FB50E46040003D1AA
:105A4000FCF76CFD040021D00025EEB1ADF800504C
:105A5000ADF80250FCF768FD401EADF8040020468A
:105A6000FCF78CFD401EADF806006A46314602A8E0
:105A7000FBF74EFD002809D022691AB11A4802A985
:105A80004068904700260DE0C0F860517FBD00BF20
:105A900004EBC60102A84031FBF762FD0028F5D1F6
:105AA000761CB6B2B4F86001C0F30900B042EFD87A
:105AB000B4F86001C0F30900202806D204EBC0004E
:105AC000029901640399416405E0C4F860510099AA
:105AD000216401996164B4F86001C0F30900401CBD
:105AE000C4F860017FBD0000240000202DE9F041D2
:105AF0000F4601F075F9060003D0544C206808B138
:105B000004E0FEE7304601F033FB20602021304600
:105B100001F05AF9304601F005FB040049D000209D
:105B20002060A17FE27F4FF6FF73238121F07F0188
:105B3000A1771921A1836081A081411EA061C4E9E0
:105B40000410606022F00300E0774149304601F024
:105B500006FC4049304601F04EFC5FB3384601F088
:105B6000E1FA0546384600F045FA0146304600F0B5
:105B700083FC384600F045FA0146304600F0D8FC78
:105B8000384600F083F90146304600F034FC3846D0
:105B900000F075F90146304600F01AFCA87F0007B6
:105BA000384618D400F034FA0146304600F0EDFCD7
:105BB00017E0FEE70021304601F0CBFB0021304624
:105BC00000F05AFC24A1304600F0DFFC30460021F2
:105BD00001F053FC36E000F01BFA0146304600F0BD
:105BE000BAFCA87F00F00700022810D1286800F056
:105BF00011FF0146206800F02BFF2060A0B128684B
:105C000000F008FF024629682068FAF7ADFAE87F3D
:105C100080070AD5686840B1FAF7CAFA82B23046FE
:105C2000616800F0FEFB02E0FEE768686060E87F04
:105C30004108E07F61F34100E07728892081304608
:105C400001F079FB3046BDE8F0810000840C0020B3
:105C5000615C0008F9650008546578740000000074
:105C60002DE9F04F8BB08B468246022A01D022B13B
:105C7000F1E000200BB0BDE8F08F01F07BFA0646A2
:105C8000504601F05FFA089006A9504601F020FA4C
:105C9000504601F049FAFFF7C9FA504505D132469E
:105CA000594606A8089BFDF77DF9504601F03AFADF
:105CB0000446C07FC00724D06946504601F008FA68
:105CC000BDF80000718B401AADF80000BDF804006B
:105CD000B18B0844ADF80400BDF80200F18A401A07
:105CE000ADF80200BDF80600318B0844ADF806009F
:105CF000504601F027FA0346324659466846FDF7FA
:105D000051F9A17F0025480600D50125080601D5D7
:105D100045F00205C1F30110012801D145F0040549
:105D2000022801D145F0080501F0070147F618499E
:105D3000032901D0042918D1012801D0022814D147
:105D4000B6F92A10CDE900190295B6F92830726A21
:105D500003A8216802F0C0FA504601F039FABDF9F3
:105D60000C10884201DA25F00C05A07F04F1100721
:105D700000F00700042805D0504601F0D7F9B0F52F
:105D8000806F00DA00274FF6FF7804F10A01CDE9B1
:105D90000218CDE904872068CDE90005324659464E
:105DA00006A8089BFCF738FDA07F00F00700042838
:105DB00051D1B6F92A10CDE900190295B6F928306B
:105DC000726A0AA8216802F087FA504601F000FAC8
:105DD000BDF928104FF0000909AF88421DDA2022D2
:105DE0001146706AFFF721F96189BDF8282000EBA0
:105DF000400011440844ADF82400A089CDE90278A0
:105E0000ADF82600CDE904892068CDE900053246C9
:105E1000594606A8089BFCF7FFFC504601F086F99E
:105E2000BDF92A10884216DA6089ADF82400706A3C
:105E3000A289007A11440844CDE90278ADF8260021
:105E4000CDE904892068CDE900053246594606A807
:105E5000089BFCF7E1FC01200CE710B501F062F9AA
:105E60000446C07F800703D5606808B100F0ACFD30
:105E7000E07F20F00200E0770020606010BD10B5E8
:105E800001F050F9807FC0F3011010BD10B501F092
:105E900049F9C07F00F0010010BD00002DE9F34F6B
:105EA00085B0059800F0B4F80746059801F03AF976
:105EB000834600242546059801F08AF90390059849
:105EC00001F058F9D0F824A08046A1469AF80800BD
:105ED00004909BF81E004E46410600D5012601069F
:105EE00001D546F00206C0F30111012901D146F0A7
:105EF000040640071AD147F61840039016E00096B2
:105F0000B8F9282038195146039B02F069F9054475
:105F100006980499B0F9022009EB0100824208DDDD
:105F2000B8F82A102C4608440FFA80F9385D00288A
:105F3000E5D19BF81E004FF00009C0F301100128C5
:105F400015D1281B009681B2B8F92830381952466D
:105F500002F01AFA8146059801F03AF900EBD07187
:105F6000491009EBD970A1EB60000FFA80F900200D
:105F70008DF80800019445B36D1E0198A84224D8FD
:105F8000DFF868B001A93846DBF8002090470090A0
:105F90000198DBF800203844002190478346F00741
:105FA00006D00198395C02A802F032FA0028E4D148
:105FB0005A4650460099FFF738F80699484400B20F
:105FC000B1F90010814209DA0194094A3846019971
:105FD0001268904707B080B2BDE8F08FB8F828107B
:105FE000019C08440FFA80F9C7E70000640C002008
:105FF000700C002010B501F095F8807F00F00700CC
:1060000010BD10B501F08EF8807FC0F3801010BD78
:1060100010B501F087F8006810BD00002DE9F04FC1
:106020008FB0814601F07EF80446006800287CD0DD
:106030004FF0FF302061484601F0CAF80646484656
:1060400001F098F8A17F0546476A480701D147F655
:10605000184600204A0600D50120090601D540F067
:106060000200B5F92A100091CDE90160B5F9283098
:106070003A4603A8216802F02FF9A07F410710D00B
:1060800000F00700DFF8C0A2DFF8C0B24FF0000850
:1060900003280ED0042866D002287DD001287CD0A9
:1060A0004BE1BDF90E20BDF90C10484601F0A5F9F1
:1060B00043E19DF83400CDE906A840F003008DF8D7
:1060C0003400CDF81090CDF82080202246461146AD
:1060D000686AFEF7AAFFB5F92810002508444FF4B6
:1060E0007A714843A18B90FBF1F000EB4000ADF8D2
:1060F0002C00ADF82E004042ADF82A00484601F0D1
:1061000067F8BDF90C10884217DA484601F060F8CC
:10611000BDF90C10CDF814B0401A02B209900898DD
:1061200001B2A08BFBF7CDF900E009E1ADF8280042
:1061300004A8FBF75DF9012504E084494846FBF714
:106140007DF96681484600F0F1FFBDF90E108842E6
:1061500066DAEDBB484600F0E9FFBDF90E10411AC2
:10616000387A081A65E09DF83400CDF8109020F0D8
:10617000010040F002008DF83400CDF8208020228C
:1061800046461146686AFEF750FFB5F928100844E4
:106190004FF47A71484301E05BE0C9E0A18BCDE99F
:1061A00006A690FBF1F000EB4001C1EB0040ADF81A
:1061B0002A00ADF82C60ADF82E600025484601F0AD
:1061C00007F8BDF90C1088421CDA2022114600E0C5
:1061D00026E03846FEF729FFBDF90C1000EB400021
:1061E0000844404202B209900898CDF814B001B2B8
:1061F000A08BFBF766F9ADF8280004A8FBF7F8F8C8
:10620000012504E051494846FBF718F966814846E4
:1062100000F08CFF0146BDF90E00814200DA2DB17D
:106220004B494846FBF70AF9A68186E0397A0844CB
:106230004042099046480590099802B2089801B278
:10624000A08BFBF73EF9ADF8280004A8FBF7D0F8C7
:1062500073E0484600F06AFFBDF90E104FF6FF7676
:10626000884205DA3B49206809688847032801D835
:10627000268162E0484600F0ABFF06462E2211461A
:10628000686AFEF7D2FE298D0844A0EB80003044F6
:10629000ADF80000484600F049FFADF80200696A19
:1062A000B5F92A20097A114490FBF1F201FB1201A1
:1062B000401AADF80200698D401AADF80200694637
:1062C0004846FFF7EBFD244A0290206812680299C5
:1062D00090470027DFF884B0DFF884A005463E46EB
:1062E0000190206801990844DBF800108847384481
:1062F000C7B2DAF8002001A920689047761C032E67
:10630000EFD920683A464119484600F08AF8A0B112
:1063100000202E212B182268401C0328D154F9D3C9
:106320002168ED1C01F805800298C01C208104E062
:10633000BDF90E10484601F014F8484600F05AFF27
:106340000FB0BDE8F08F00009D140008056500083F
:106350001B650008740C00206C0C0020600C0020F1
:10636000640C00202DE9F041804600F0DBFE05467C
:10637000807F00F00700022825D129894FF6FF779A
:10638000B94220D0114A2868C91E126890470646B3
:106390000024404600F0C6FEC17F890701D5406851
:1063A00005E0001D03E0035D641C8B54E4B2296822
:1063B00032198B5C002BF6D13219005D88544046AF
:1063C000FFF74BFD2F81BDE8F08100006C0C002031
:1063D00070B50C46054600F0A5FE817FC1F30112A1
:1063E000A24207D064F3051181772846BDE87040CA
:1063F00000F000BF70BD70B50C46054600F092FE7F
:10640000C17F01F00102A2420AD064F30001C1770A
:10641000284600F082FF2846BDE8704000F0EABE42
:1064200070BD2DE9F04115460E46074600F07AFE94
:1064300004463846FFF711FD042D11D9681C00F001
:1064400095FA6060002815D02A463146F9F78CFE8F
:10645000616800204855E07F40F00200E07708E0E6
:10646000E07F2A4620F00200E0773146201DF9F750
:106470007BFE0120BDE8F08170B50D46064600F0B8
:1064800051FE04461B493046FAF7D8FF1A493046F8
:10649000FAF7D4FF19493046FAF7D0FF18493046C9
:1064A000FAF7CCFF00216181A181032D0CD0042DCE
:1064B0000AD0052D08D0A07F20F08000A07700F042
:1064C0000700022804D00BE0A07F40F08000F5E731
:1064D0002089A0F57F41FF3902D03046FFF742FF07
:1064E000A07F65F30200A0773046BDE87040FFF75B
:1064F00095BD00008F740008A774000805650008AA
:106500001B65000870B50C46054600F00BFE448183
:106510002846BDE8704000F06DBE70B50C460546DB
:1065200000F000FE84812846BDE8704000F062BEA5
:1065300070B50C46054600F0F5FD817FC1F3801271
:10654000A24207D064F3861181772846BDE87040E7
:10655000FFF764BD70BD70B50D46064600F0E2FD64
:106560000446807F000705D4206818B100F02CFA9B
:106570000020206025B1A07F40F00800A0772560B2
:106580003046BDE87040FFF749BD2DE9F0410D46AA
:10659000064600F02FFE304600F0C4FD044625B349
:1065A0002068A84208D1F9F703FE411C206800F0DA
:1065B0004FFA2060C8B9FEE72846F9F7F9FD471CF5
:1065C000206830B1A17F090703D400F0FDF9002055
:1065D0002060384600F0CAF9206058B12946F9F722
:1065E000FCFDA07F20F00800A0773046BDE8F04118
:1065F000FFF714BDFEE700002DE9F041384B1546CA
:106600000F461B68044698478046012865D12046FE
:1066100000F088FD064647B1042F2AD0022F10D083
:10662000052F2DD0062F4CD056E0B07F000704D4A4
:10663000306800F0C9F9002030602046FFF70DFCFB
:106640004AE0A08A218A2A88401AA988401C891A0F
:10665000491C00B209B288420BD1E08A618A6A887B
:10666000401AE988401C891A491C00B209B28842C4
:1066700032D02046FFF776FE2046FFF7CFFC2BE016
:10668000C07FC00728D0204600F074FDB4F9341054
:10669000B0F91A20914200DC1146A186B0F91C2005
:1066A000914200DC1146A186B0F91620914200DC2F
:1066B0001146A186B0F91800814200DC0146A1868E
:1066C0000AE0002055F8201019B1401CC0B207287C
:1066D000F8D304A145F820104046BDE8F081000041
:1066E000840C00206C765F6C6162656C00000000B9
:1066F00070B50C461E461546114600F0FBF8AEB1CB
:1067000000222946204601F0CEFF29462046626835
:1067100001F0B6FF616819B12A46204601F0C3FFB7
:106720006560A068002800D1A56070BD294620469C
:10673000A26801F0B8FF00222946204601F0A0FF20
:10674000A16819B12A46204601F09AFFA560606849
:106750000028EAD1656070BD002100B1416808469B
:106760007047002218B10068091D084402681046ED
:106770007047002210B10068084402681046704754
:10678000002100B1816808467047002242608260A3
:106790008A0702D021F00301091D0160704770B51E
:1067A00004460068083000F0E1F8050013D0014607
:1067B0000022204601F077FF29462046626801F05A
:1067C0005FFF616819B12A46204601F06CFF6560E1
:1067D000A06800B9A560284670BD2DE9F0410D46BE
:1067E00007002BD055B3FFF7B7FFA84204D13846B6
:1067F000FFF7D5FF04461EE03868083000F0B6F811
:1068000004001BD029463846FFF7B3FF0646014671
:106810002246384601F034FF32462146384601F020
:1068200042FF22462946384601F03DFF2A462146CE
:10683000384601F025FF2046BDE8F0810020FBE747
:1068400070B504460068083000F090F8050013D0D9
:1068500001460022204601F013FF29462046A26887
:1068600001F021FFA16819B12A46204601F008FF76
:10687000A560606810B102E0002070BD6560284628
:1068800070BD28B1416809B9806808B1002070471F
:10689000012070472DE9F04116460D460746B142EA
:1068A00026D01EB11146FFF764FF01E0FFF768FF35
:1068B0000446A5421CD02946384600F01BF82A465B
:1068C0002146384601F0DCFE22462946384601F0D2
:1068D000EAFE2A463146384601F0E5FE32462946B0
:1068E000384601F0CDFE06B9BD60002C00D17D60B8
:1068F000BDE8F08170B50D460446FFF72DFF00237B
:10690000A8420AD129462046FFF72BFF6060011EEE
:1069100001D0002224E0A36070BD2046FFF730FFC5
:10692000A842294620460CD1FFF723FFA060011E94
:1069300005D02046BDE87040002201F0A1BE636092
:1069400070BDFFF716FF064629462046FFF709FFF0
:10695000054602463146204601F092FE324629465F
:106960002046BDE8704001F09EBE000070B50500F5
:1069700011D0A80702D025F003052D1D00263446AE
:106980002046FAF77DFB040019D02068002629462E
:10699000C20702D00CE00B4870BDB1EB500F07D816
:1069A0002046FAF77FFB2068261D40F00101216098
:1069B000002EE5D0AA2229463046F9F7E7FB3046FB
:1069C00070BD0000480C002010B5044610488442F9
:1069D0001DD0002C1BD0204600F01CF80146BB2225
:1069E0002046F9F7D3FB54F8040D20F00100206095
:1069F000204608E00168CA0709D121F00101226898
:106A0000083111442160FAF73BFB0028F2D110BD98
:106A1000480C0020002803D00449884201D10020FE
:106A2000704750F8040C400870470000480C0020E4
:106A30000649054841F6FC720860016821F0010131
:106A400062F35F010160704728290020440C002098
:106A500070B50A46040004D0201F0078C00700D19A
:106A600000242046FFF7D6FF0546904201D120467C
:106A700070BDAA4206D2201F04461146FAF712FB47
:106A8000201D70BD1046FFF771FF060008D03CB115
:106A900035B12A462146F9F767FB2046FFF794FFF8
:106AA000304670BD2DE9F0471F4616460D46044698
:106AB000DDF8209000F092FB0246204600F094FBA7
:106AC00005B92568152E2DD2DFE806F00B1A1C2D0E
:106AD000363A4953555F61707E80B3BDC3C8CDD28D
:106AE000E500284600F074FB0246204600F070FBEB
:106AF00002EBD271491000EBD070A1EB600042E0D4
:106B000000220EE0284600F063FB0246204600F01B
:106B10005FFB02EBD271491000EBD070A1EB60007B
:106B200095E0002064E0284600F052FB0246204633
:106B300000F04EFB101A8AE00022B0E000B257E0ED
:106B4000284600F045FB0246204600F041FB02EBE0
:106B5000D271491000EBD070A1EB600007E028462D
:106B600000F036FB0246204600F032FB101A02B25B
:106B700095E0002280E0284600F02AFB02462046ED
:106B800000F026FB101A02B276E0002217E0284639
:106B900000F01EFB0246204600F01AFB02EBD27109
:106BA000491000EBD070A1EB600007E0284600F030
:106BB0000FFB0246204600F00BFB101A02B22046E3
:106BC00000F0B4FA4042B9E700220EE0284600F097
:106BD000FFFA0246204600F0FBFA02EBD2714910A0
:106BE00000EBD070A1EB60002BE0284600F09EFA8D
:106BF0002168B5F810C06B8AB1F81080BC444B44D2
:106C0000498A62441844A2EB080213B2401A02B245
:106C10001946204600F0B0FB84F84060A787A4F82E
:106C20003E9044F8385F607A20F002006072BDE860
:106C3000F087284600F0CCFA0246204600F0C8FA59
:106C4000101A02B2D1E7204600F0C2FA404202B266
:106C500067E7204600F0BCFA404294E7204600F087
:106C6000B7FA404283E7284600F0B2FA024658E7F6
:106C7000284600F0ADFA0246284600F057FA0346CF
:106C8000204600F053FA03EBD371491000EBD070AB
:106C9000A1EB600052E7284600F09AFA0246284627
:106CA00000F044FA0346204600F040FA181A45E77F
:106CB0002DE9F047994690460D460446DDF820A0A0
:106CC00000F08CFA0246204600F08EFA0346204679
:106CD00000F07EFA00EBD0704710204600F026FA54
:106CE00000EBD070461005B92568B8F1150F17D222
:106CF000DFE808F00B1338404749515B5D1338401B
:106D0000474951135B47405D5100284600F060FA47
:106D100000EBD070C7EB60004DE078422EE003B28C
:106D200020682F8A6E8A018AB0F812C009EB07002A
:106D300010440AEB0602401A1A4401B2A2EB0C00FE
:106D400002B2204600F018FB84F84080A4F83C9082
:106D5000A4F83EA044F8385F607A40F00200607208
:106D6000BDE8F087284600F033FA00EBD070C7EB9F
:106D7000600003E0284600F02BFAC01B02B270420C
:106D8000CDE778420BE0284600F022FA00EBD07005
:106D9000C7EB600003E0284600F01AFAC01B02B2FD
:106DA000284600F0C3F9801BB9E7784203E0284683
:106DB00000F00EFAC01B02B2284600F0B7F900EB53
:106DC000D070C6EB6000AAE710B50446406AFFF732
:106DD0003FFE606210BD10F8322F8A430270704788
:106DE0002DE9F0410D4607004FF0FF084FF0000677
:106DF00024D0381DFFF7D3FC040067D04821201DA4
:106E00002760FFF7C2FC388A2082788A6082388A3D
:106E10006430A082788A4230E082A68684F840609E
:106E2000A687E687A66394F8410020F0010084F865
:106E3000410001F07BF9E8B3806849E0FBF76EFBA5
:106E400000287CD02830FFF7AAFC040021D048217C
:106E5000201D2660FFF799FC268266820020FBF742
:106E600063FB401EA0820020FBF788FB401EE082EF
:106E7000A68684F84060A687E687A66394F841005A
:106E800020F0010084F8410001F050F910B10068D1
:106E900001E0FEE75A48A0625A48E061A6616664D4
:106EA0005948E662206294F8300084F8326084F831
:106EB000338000E00BE020F0FF0084F8300094F80D
:106EC000310020F0FC0084F831001BE0FEE74F4861
:106ED000A0624C48E061A66166644B48E6622062AD
:106EE00094F8300094F8311020F0FE0041F00301D6
:106EF00084F8311084F8326084F8338040F0010067
:106F000084F830006662002D6DD02969216155F842
:106F1000141F6161288CA086286B606495F82C0092
:106F200084F84000288DA087688DE087686AA06398
:106F300095F82D0014F8411F60F3000100E05CE0BB
:106F400004F81D19686844F80C0C297F207B61F354
:106F500000002073297F490861F341002073697F95
:106F6000627B61F301026273297F890861F3820009
:106F70002073297FC90861F3C3002073297F0909A1
:106F800061F304102073297F490961F345102073D0
:106F9000297FC90961F3C7102073297F890961F32B
:106FA00086102073A87FA073E87FE0736869606033
:106FB000243CA869143D10B12146FEF7FBF828686F
:106FC00060B15FB1284600F00FF90246284600F094
:106FD00005F90146204600F0CFF905E000221146F0
:106FE000204600F0C9F93FB1FB692246012138462D
:106FF0009847204600F0FEF82046BDE8F0810000EA
:10700000C8250020BD74000811700008F426002077
:107010007CB50E46044600F11005022A01D0DAB311
:1070200048E029463046FAF79BFA002836D0204639
:1070300000F0A0F8017AFB292FD3B0F90650A5F58E
:10704000F840183829D02069009060690190BDF897
:10705000000069462844ADF80000BDF80400401B5C
:10706000ADF804003046FAF77BFA002816D0206904
:10707000009060690190BDF8020069462844ADF8AF
:107080000200BDF80600401BADF806003046FAF7D6
:1070900067FA002802D00DE001E000207CBD00F07E
:1070A00069F80246204600F04DF80346314628466E
:1070B000FBF778FF01207CBD90F8410000F0010053
:1070C000704700F1040009B1FFF74BBBFFF744BB69
:1070D00002690A60406948607047006A70470000B2
:1070E00070B5016809B100F03DF805460C48FFF79E
:1070F00033FB12E004F128000646FFF72DFB06E003
:10710000A94201D1204670BD3046FFF72AFB01009D
:10711000F6D121460248FFF724FB0400EAD170BDF6
:10712000E0280020406A7047C06A7047C18A408AE0
:10713000081A401C00B2704790F83000C0F30010ED
:107140007047000008E000BF90F83010490602D5F3
:1071500090F83300704700680028F5D1FF20704791
:1071600000687047014600680028FBD10846704758
:10717000C069704770B5856A06464DB9346805E048
:10718000A06A10B10078C0070FD02468002CF7D196
:10719000F06A40B1FEF74AF8B04204D12946F06ADD
:1071A000FEF752F8054675B10EE0E56A2846FEF78F
:1071B0003DF8A04205D12846A16AFEF745F80546EC
:1071C000E6E7A56AE4E7014D284670BDB826002031
:1071D000818A008A081A401C00B270470168008A40
:1071E000098A401A00B270470168408A498A401AE9
:1071F00000B270477CB5054690F83000C0F300102F
:10720000002848D12846FFF7ADFF0446FFF768FF86
:107210000646FBF7ABF9A04209D03046FBF79EF9D2
:10722000A04204D03046FBF791F9A04233D1A98E99
:107230002C682A6900926A690192BDF80020012039
:10724000521AADF80020BDF80220521AADF8022003
:10725000BDF804200A44ADF80420BDF8062011440E
:10726000ADF806100FE000BF694604F110020846B1
:10727000FAF74EF900280ED094F83010C1F300113F
:10728000002908D12468002CEED1002803D06946DB
:107290003046FEF7D1FB7CBD10B50446C06A28B16C
:1072A000FDF7C4FFA04201D1012010BD002010BD98
:1072B00090F83200084000D00120704770B5046893
:1072C0000546201DFFF748FAA84212D02046FFF7D6
:1072D00091FF01232A46211D201DFFF709FAE369CA
:1072E0002A460121204698472046BDE87040FFF716
:1072F00081BF70BD38B590F84110B0F93E408D07A0
:10730000B0F93C3090F84020816B009402D5FFF733
:10731000CFFC38BDFFF7C6FB38BD10B504460020D2
:10732000A0860246E3690521204698472046BDE82D
:107330001040FFF75FBF10B50446FFF75BFF002268
:10734000E3690421204698472046BDE81040FFF736
:1073500051BF10F8302F61F30002027070470162D4
:10736000704710B50A460346FFF732FF0146BDE8F5
:107370001040184600F041B87CB506680446308AD3
:107380000144708A1044228A891A628A09B2801ADA
:1073900061F30F0500B260F31F4509B9002824D03E
:1073A0002046FFF727FF2069009060690190208A3E
:1073B00029B208442082608A2A1410446082A08A7C
:1073C0000844A082E08A1044E082204601F093F94C
:1073D000E3696A46022120469847F3692246012163
:1073E000304698472046FFF705FF7CBD10F8322F46
:1073F0000A4302707047C16170477CB515460E465E
:107400000446FFF7E5FEB04204D12046FFF78EFEAA
:10741000A84231D02046FFF7EDFE20690090606958
:107420000190208A761E3044A082608A6D1E284416
:10743000E082E3696A46022120469847206818B135
:10744000C369224601219847201DFFF785F907E00F
:107450000022EB69032198472946201DFFF781F997
:107460000500F5D12046FFF7C5FE94F84100C0079E
:1074700002D02046FFF73EFF7CBD10B50446816276
:1074800001F05BF92046BDE81040FFF754BF10B58E
:107490000B460446FFF7A8FE02462046BDE8104012
:1074A0001946FFF769BF10B50A460346FFF796FE77
:1074B0000146BDE810401846FFF75EBF2DE9F041D8
:1074C00015460C4607460126FFF754FE012C06D050
:1074D000052C0BD0042C11D0062C13D014E0012164
:1074E0003846FFF7E5FE78B100260DE0B0F912004E
:1074F000B7F93410884207DDB88605E03846FFF753
:107500000CFF01E002A028603046BDE8F0810000D9
:107510006C765F6F626A00002DE9FC47474C0646B7
:107520006068FBF746F84FF0000A90B16068FAF720
:10753000F3FF0746A0F810A055466068FAF7F4FF7D
:10754000411EB9827D826068FBF718F8411EF982FE
:107550006EE0A1466068FAF7DFFF0446B088318824
:10756000401A401C05B2F0887188401A401C07B2CE
:10757000D9F80400FBF702F80146B6F9060081428B
:1075800005DCD9F80400FAF7F9FF401E00B2804686
:10759000E068B0FBF5F5BD4200DD3D46D9F80400DA
:1075A000006910B3ADF800A0681EADF804A0ADF8F6
:1075B00002A007B2ADF80670D9F804006946026966
:1075C0009047BDF80600BDF80210401A401C00B2FA
:1075D000A84205DD7F1E3FB2002FEBD1BDE8FC873E
:1075E000002FFBD0BDF906506D1C4FF00009B6F915
:1075F000020010E032882282B288A282608208B241
:10760000E082404501DDA4F81680B4F916903046BA
:1076100000F016F838B24719791E4145EADDC84531
:10762000DCD031882182B188A1826082A4F81680E2
:107630003046BDE8FC4700F003B8000024000020FD
:107640007CB5184C06466068FAF766FF0546606828
:10765000FAF7A6FF10B9A869C007FCD105F110021E
:1076600031466846F9F754FF6068FAF77FFF014634
:10767000684600F045F8694600F042F96068FAF79C
:107680006DFF694600F03CF96068FAF75FFF6946F4
:1076900000F036F96068FAF78CFF002801D100F09D
:1076A00055F97CBD2400002070B5114D0020044622
:1076B000286014E0011991F8401179B900EBC40079
:1076C0004030FFF729FF6868816939B100EBC400D9
:1076D0004030F9F709FF296808442860641C68688D
:1076E000B0F86011C1F30901A142E3D870BD0000F8
:1076F000240000200148406870470000240000205A
:107700002DE9F0410C46074600251031F9F728FF16
:1077100028B394F83000C00621D4201DFFF71CF8D0
:1077200009E001463846FFF7EBFF050017D1314667
:10773000201DFFF716F80600F3D12046FFF71AFDCB
:10774000007AFF280BD1236A022239462046984747
:1077500028B12046FFF7F6FCFF2800D12546284631
:10776000BDE8F081704700002DE9FC410025DFF8FD
:10777000B8804FE0294491F84011E1BB00243FE07C
:10778000011991F84011B9BBA54238D000EBC401F2
:1077900000EBC50040304031F9F7FFFE60B3706880
:1077A000B04600EBC40200EBC501684640314032F0
:1077B000F9F70FFF6846F9F797FE0646D8F8040078
:1077C00000EBC5004030F9F78FFE0746D8F80400FB
:1077D00000EBC4004030F9F787FE384486420ED2F1
:1077E000D8F80410009A01EBC50021440264019A04
:1077F0004264012001E00CE001E081F84001641CDA
:10780000D8F804004646B0F86011C1F30901A1425E
:10781000B6D86D1CD8F80410B1F86021C2F3090283
:10782000AA42A7D8BDE8FC812400002070B5044618
:1078300090F830008AB00E46C0065FD4A58E694627
:107840002046FFF745FCBDF800006A46401BADF836
:107850000000BDF802003146401BADF80200BDF843
:1078600004002844ADF80400BDF806002844ADF833
:10787000060004A8F9F74CFE00283FD0236A002236
:1078800004A92046984769462046FFF721FC6A462E
:10789000314606A8F9F73CFE58B3201DFEF770FFED
:1078A00025E002A9FFF714FCA88EBDF8081002AA73
:1078B000091AADF80810BDF80A10091AADF80A1037
:1078C000BDF80C100144ADF80C10BDF80E100844C2
:1078D000ADF80E0006A908A8F9F71AFE18B108A914
:1078E0002846FFF7A3FF2946201DFEF742FF0500AB
:1078F000D7D1236A012204A9204698470AB070BD57
:1079000070B50E46050004D10F484068FAF72EFE08
:1079100005463146FFF78AFF0FE02946201DFEF796
:1079200028FF051E03D03146FFF780FFF5E7236AE5
:10793000012231462046984725462846FFF710FC8D
:107940000400EAD170BD00002400002070B5124D83
:107950006868FAF7E1FD04466868FAF721FE10B19D
:10796000A069C007FCD1A06940F00100A06168686F
:10797000C3681BB104F11001A26898472068002871
:1079800006D06168002903D0A268824201D1A160BB
:1079900070BDA06070BD0000240000203C22F8F7FC
:1079A000E3BB00002DE9F843FE4C0025FE4E257098
:1079B000FF20207230680090BDF800006080706881
:1079C0000090BDF80000A080E5806583A583E58276
:1079D00025830527E7830095BDF800006081FF201F
:1079E000E073A5810F20A073B0680090BDF800007F
:1079F0002082012020756582FF20302284F82C002F
:107A000011461046F9F7C5FF0090BDF8000020842C
:107A1000D82296215520F9F7BCFF0090BDF8000050
:107A20006084E248606225854FF00208A4F82A804D
:107A3000FF20202284F8330011461046F9F7A9FFF1
:107A40000090BDF80000208684F83250FF202022EC
:107A500084F8380011461046F9F79BFF0090BDF8F6
:107A60000000A086A4F83680214684F8395001F140
:107A7000F000FFF793FF04F1F0000146478387838E
:107A8000C78207833C30FFF789FFF022114610467A
:107A9000F9F77FFF04F580740090BDF80000A4F8AA
:107AA0004C00F022114610462E34F9F772FF009078
:107AB000BDF80000F022E08511461046F9F769FF95
:107AC0000090BDF800006086D82296215520F9F775
:107AD00060FF0090BDF8000020806080A4F13E01AE
:107AE00001F17800FFF75AFF202211461046F9F7FE
:107AF00050FF009004F15200BDF8001001812022D7
:107B000011461046F9F745FF009004F15200BDF808
:107B100000100183202211461046F9F73AFF009029
:107B200004F15200BDF800108183F0680090BDF8A8
:107B30000000A08730690090BDF80000E08704F1E4
:107B40003A0706204022F88011461046F9F721FF37
:107B50000090BDF80000A4F84400A7F80C804C2069
:107B6000F873394601F13C00FFF718FFE022114697
:107B70001046F9F70EFF009004F15200BDF8001016
:107B8000A0F84410E02211461046F9F702FF0090D9
:107B900004F15200BDF80010A0F85410C0221146A4
:107BA0001046F9F7F6FE009004F15200BDF80010FF
:107BB000A0F85810C7229A216B20F9F7EAFE00902E
:107BC00004F15200BDF80010C1848B2259212B20F2
:107BD000F9F7DFFE009004F15200BDF800100185B6
:107BE00042222C211520F9F7D4FE009004F1520016
:107BF000BDF80010C185A0F19001A0F5A270FFF7BB
:107C0000CDFEA4F1F20001210170858105720146CB
:107C10003C30FFF7C3FEA4F1B600014645838583DF
:107C2000C58205833C30FFF7B9FEA4F17A0000F16C
:107C30003C01C58300F59670FFF7B0FED022A2216B
:107C40007620F9F7A6FE009004F15200BDF800106E
:107C5000A0F862105D223A211920F9F79AFE0090EF
:107C600004F15200BDF80010A0F86410B2340620F0
:107C7000E08019206083A0831020E08220830A2006
:107C8000E083282219210B20F9F783FE0090A4F14C
:107C90006000BDF80010A0F86A10A4F80C80B220B3
:107CA000E07370690090A4F16000BDF80010A0F8C6
:107CB0007010FF22658211461046F9F76AFE2034E3
:107CC0000090BDF80000FF2224F81E0B114610465C
:107CD000F9F75FFE0090BDF8000024F80E0C07F1E4
:107CE000780101F13C00FFF759FE94226221332014
:107CF000F9F74FFE0090BDF8000020803C222621BD
:107D00001020F9F746FE0090BDF800006080C62202
:107D1000B521A420F9F73DFE0090BDF80000E083F6
:107D2000C622B521A420F9F734FE0090BDF800006A
:107D3000E085C622B521A420F9F72BFE0090BDF8FE
:107D40000000608607F1780101F17800FFF726FE58
:107D5000222211210A20F9F71CFE0090BDF8000034
:107D6000A087902262213720F9F713FE0090BDF81A
:107D70000000E0870D2207210120F9F70AFE00909C
:107D8000BDF80000A4F84400F422DD21C820F9F772
:107D900000FE0090BDF80000A4F85A00F422DD2196
:107DA000C82005E0C8250020D0880008140C002059
:107DB000F9F7EFFD07F58C740090BDF80000208105
:107DC000F422DD21C8201634F9F7E3FD0090BDF858
:107DD000000024F80A0CA4F13E01A01EFFF7DEFD0E
:107DE000272214210220F9F7D4FD0090BDF80000ED
:107DF000208070224C212B20F9F7CBFD0090BDF89C
:107E000000006080C622B521A420F9F7C2FD0090D1
:107E1000BDF80000E083C622B521A420F9F7B9FD22
:107E20000090BDF80000E085C622B521A420F9F736
:107E3000B0FD0090BDF800006086A4F1B60101F12C
:107E4000F000FFF7ABFDD82211461046F9F7A1FD6F
:107E50000090BDF80000D822A08711461046F9F71F
:107E600098FD0090BDF800009022E0871146104672
:107E7000F9F78FFD0090BDF800007022A4F84400CF
:107E800011461046F9F785FD0090BDF800007022FC
:107E9000A4F85A0011461046F9F77BFD6A340090A9
:107EA000BDF800007022208011461046F9F771FDE0
:107EB0000090BDF80000A080BDE8F88310B5142143
:107EC0000348FEF762FC03490120087010BD000062
:107ED000D42800204C0C00202DE9F0411F4690468C
:107EE0000D46064600F00CF8040008D0A660414696
:107EF000256000F0EFF82046E760BDE8F081FEE77E
:107F000070B51C48FEF728FC050005D11948FEF79E
:107F100046FC040017D1FEE7287C294600F0070044
:107F20000328144806D8FEF758FC040001D02DB1F0
:107F300009E0FEE7FEF715FC0500EDD10D48FEF760
:107F40007FFC040014D000254FF4FA70A560206077
:107F5000207C20F00700C01C20F00800207400F0F6
:107F6000F1F8E5600449606001200871204670BDA9
:107F7000FEE70000D42800204C0C002010B5044679
:107F800001460748FEF7B6FC2046FEF71DFD0548F2
:107F90000068A04202D104490120C87010BD000051
:107FA000D4280020400C00204C0C002070B5044662
:107FB0000025406800F0C0F82168814213D800F025
:107FC000C1F80A4D60600020E8702871A16819B1FD
:107FD00020468847E87828B9207C000702D520464B
:107FE000FFF7CCFF0125284670BD00004C0C002097
:107FF0002DE9F0412F4CA078002859D10120A07024
:1080000020780026F0B300F09DF82B4D0027E060AB
:10801000E67026712948FEF79FFB286023E0274879
:10802000FEF79FFB80462868017C4A071DD0B842B6
:1080300001D1002714E001F0070105290AD027B17A
:108040003A7C02F00702914206D9FFF7AFFF18B160
:108050002F68DDE7FFF7AAFFE07830B9207920B973
:108060004046C5F800800100D9D1E06800F064F80E
:10807000216908442061A06800F05EF84FF4FA71AD
:10808000884200E013E012D3206964225043B0FB21
:10809000F1F0C0B26070642801D9002001E0C0F1A5
:1080A000640060702546266100F04CF8A860A67058
:1080B000BDE8F0814C0C0020400C0020D4280020AA
:1080C00010B5044600F03EF82168401A401E60607A
:1080D00010BD000070B50546007C0E4600F007009C
:1080E000B04220D01048FEF737FB11E0207C00F0B2
:1080F0000700B04208D8AC4204D0224629460A48BC
:10810000FEF7C8FB34B10AE021460748FEF729FB19
:108110000400EBD1002229460348FEF7BBFB287C74
:1081200066F30200287470BDD4280020014800685E
:1081300070470000880C002010B5044600F002F8DB
:10814000001B10BD0349012248680A700B78002B00
:10815000FBD070472C0C0020034900220A704A68AB
:1081600010444860704700002C0C002038B50020F7
:10817000FAF7FCF905460021FDF7B8FC044612A108
:10818000FEF703FA0020034602460146009020460F
:10819000FEF788FC00212846F9F744FA044600223D
:1081A0000221F9F7F6FA0A20034600900422002182
:1081B0002046FEF777FC00212046FDF797FCBDE83E
:1081C000384005A1FEF7E1B948656C6C6F20776F08
:1081D000726C642100000000427574746F6E0000C0
:1081E0002DE9FF4F83B09B46DDF84090070015D086
:1081F0000498002813D05FEA897001D547F6184B20
:108200000020324E009001908DF808008246451EF5
:10821000726801A938469047044650E0002007B034
:10822000BDE8F08F019800907268A04601A9384619
:10823000904704465FEAC97004D0414602A800F0A6
:10824000E7F878BB4046B8F10A0F3CD0B8F10D0F03
:108250000FD0014622460498FCF7E7FE01460AEBE0
:1082600001000FFA80FADA4513DD681C06D000958C
:1082700008E00A2C27D1019880B2D0E7B26869469D
:10828000384690470098F0B972686946384690477A
:1082900019E04246002008E00DA31B5C934202D186
:1082A000009D06E00BE0401CC0B209A31B5C002B44
:1082B000F2D121B105990AEB01000FFA80FA00987A
:1082C000385C0028AED10098D6E70000600C002092
:1082D000202C2E3B3A2D5F002DE9FF4F81B0044644
:1082E0004FF00000DDF840A0DDF8389020800F004E
:1082F000608043D00398002840D05FEA8A7002D59E
:1083000047F618400F90039800252E4690F80880F5
:108310001EE0CDF800A0DDE90312781983460F9B1B
:10832000FFF75EFF6188064401EB08004844608067
:10833000CDF800A0701BDDE9032381B2584600F0A0
:1083400023F8B4F90010814200DB0846208035464E
:10835000785D0028DDD15DB1781910F8010C0A288C
:1083600001D00D2804D1628808EB09001044608018
:10837000B4F9020028B1A0EB0900608005B0BDE8A7
:10838000F08FA4F80280F9E72DE9FC5F1E46DDF8C6
:1083900030A091460D46070009D0B9F1000F06D074
:1083A0000020044600908DF804002DBB2BE0002037
:1083B000BDE8FC9FDFF8548069463846D8F80420B1
:1083C000904783460098D8F804203844002190470D
:1083D00080465FEACA7004D0594601A800F018F838
:1083E00050B9424659464846FCF71FFE00B20028E5
:1083F00002DD2044304404B20098A842DAD3002CB5
:1084000001DDA01B04B22046D2E70000600C002072
:1084100000230278232902D0012A0DD00FE02AB1CF
:108420000021012A04D0022A04D008E0012101E041
:10843000017004E0017001E0202902D001231846F8
:1084400070470221F6E700002DE9F04100240E46B6
:1084500080462546064F05E0396808EB040088474A
:1084600004446D1CB542F7D32046BDE8F0810000FE
:10847000600C0020F8B5074600200D460446064E65
:10848000009004E07268694638469047641C009882
:10849000A842F7D32046F8BD600C0020F8B50024B0
:1084A0000546074E009404E07268694628469047E6
:1084B000641C0098285C0028F6D12046F8BD000016
:1084C000600C002078B500250446009501B9694686
:1084D0000A68A05C030601D4054634E006260223A0
:1084E000B6EB501F06D1C006400D24E004F03F0358
:1084F0001D1828E00E26B6EB101F02D10007000C55
:108500000FE01E26B6EBD00F1DD1521C0A604007AB
:10851000A55CC00AB3EB951F13D105F03F0500EB36
:108520000530521C0A60A55CB3EB951F09D105F01C
:108530003F0500EB8510521C0A60A45CB3EB941F4E
:10854000D4D0002078BD521C28460A6078BD0000B7
:10855000F8B5074608680025401E0C460D4E086019
:1085600001E0042D13D2206831683844884718B9D7
:10857000216861B1491E21606D1CEDB20028F0D068
:10858000206800907268694638469047F8BD002020
:10859000F8BD0000600C00200078010611D506210E
:1085A000B1EB501F01D1022070470E21B1EB101F1B
:1085B00001D1032070471E21B1EBD00F01D104205F
:1085C00070470120704700002DE9F0471E46144611
:1085D0000D468246DDF8209015E000BF4FEA5408B2
:1085E00008FB0657394650464A469047002808DDA2
:1085F00044F30000C0EB540407EB0605A4F10104AA
:1086000001E005DA4446002CE8D12046BDE8F087B9
:108610003846FBE78AB0F7F709FFF8F759FAE82080
:10862000F7F7B0FFF8F72EF9F8F7A4F9F8F750F9D3
:10863000F8F7FCFAFDF7D4F90E494FF4486300222D
:1086400001F5C850F9F7D2FE6846F9F7DFFE0A488F
:1086500001900A4803906846F9F7F6FEFFF786FD99
:108660000A20F8F7FFF8FFF7C3FC0A20FFF774FDB4
:10867000F6E700008C0C00208C250020DF4E00085F
:1086800007B5002908D004220068091D029B084490
:108690001BB102A9F7F768FD0EBD03B011465DF8E6
:1086A00004EBF7F77ABD07B5002907D00068029BF5
:1086B000042208441BB102A9F7F756FD0EBD03B012
:1086C00011465DF804EBF7F768BD000010B5002413
:1086D00007E000BF90F83010890600D50446FEF789
:1086E0003FFD0028F6D1002C04D02046BDE8104004
:1086F000FEF7E4BD10BD2DE9F041074615460E46D4
:10870000001DFEF729F814E0208A2A463044208212
:10871000608A314628446082A08A3044A082E08A80
:108720002844E0822046FFF7E6FF2146381DFEF789
:1087300018F80400E8D1BDE8F08170B505460021C5
:1087400009E0A06A60B10078C00702D02046FFF7B8
:10875000F4FF21462846FEF7B4FC0400F1D170BDB9
:108760002046FFF7EAFF2046FEF7E5FDF1E70000AF
:108770002DE9FF4F83B014468846DDF840B0FEF780
:10878000B9FFBDF818A04169814611B3B4F9006082
:1087900018E000BFB4F902500EE000BFCDF808B0F9
:1087A000ADF804A00095D9F8147048463346424607
:1087B0000399B8476D1C2DB2B4F90600A842EDDA52
:1087C000761C36B2B4F90400B042E3DA07B0BDE873
:1087D000F08FB4F90200039900FB08F001EB4005AB
:1087E0005846BBF1FF0F09D00021024600910698C0
:1087F000F9F7DFF80190B4F9027053E0B4F9000022
:1088000006E000BF05EB4002401CA2F800A000B249
:10881000B4F904108142F5DAB4F90000A18805EB3F
:108820004009081A400400F500300614608805EB82
:108830004807401C05B20BE0B4F90000324607EBD4
:1088400040004946F7F790FC6D1C07EB48072DB236
:10885000B4F90600A842EFDAB8E700BFB4F9006047
:1088600018E000BF35F81600BDF8001088420AD0A5
:1088700005EB46005A460088ADF8000000990698BE
:10888000F9F797F8019005EB4600BDF80410761C47
:10889000018036B2B4F90400B042E3DA7F1C05EB84
:1088A00048053FB2B4F90600B842D7DA8EE700882F
:1088B0000988401A70470000000000000000010213
:1088C0000304060708090000000001020304000079
:1088D000FFFF0000FFFF000010840000FFFF00000A
:1088E00018C6000010848040C02A80D420609FDF1A
:1088F0001A4C80B2E615406A94BFEA12375B80A436
:10890000C8ED103050708FAFCFEFD250E6963CEBF1
:10891000B97D32FAF2DBBF9E754C2845ADACACACEC
:10892000AC9B9B7900359D00E2C4E2D3E0D2C0B19C
:1089300000006005100002F00F200005C02F0001AC
:1089400029A27C200CEFFEFFE3000F20C500002FC2
:1089500000F200147D45F4205CEECEFC8000B608E9
:10896000900000E30B600001F00E300000002000DA
:1089700000000E40000005F810001DFCEE3007F26C
:1089800000DB00AC0007F008F20002001EE8200047
:108990000019EFA10000006FB00510007F00F70084
:1089A00006F10AE524EC001AFFFB100001F20000BA
:1089B000000910000067200000000CA8E100100072
:1089C0001F00A603D0002E00970D40000D74E37A1F
:1089D0000000029A42E1000000000B60100000005D
:1089E0005C1CEE400001E27A04E0000980A701F07F
:1089F000001D008A04E00000001CDE5000000000A2
:108A00001000000575000000BFBEB00002F502F3C3
:108A10000003F403F20000EB3E9000004FF800006A
:108A200001CFF500400BD19F32F22F500BE8F01F21
:108A30005001DF800BD314DFA001AFFFA5F70000CA
:108A40002000003F3F3E290008000AC005E100D792
:108A5000004F1009C000CA000E8000E8000D900011
:108A6000CA0008D0003F2000C80003F20007D00071
:108A70000500630004E20008C0000F5000AC0005D0
:108A8000F1003F4001F5000F6001F5003F4005F0A7
:108A900000AB001F4009B006D100410000000600F5
:108AA0000001F000431F0328FDFDF700BF90004FB9
:108AB0005F200B60A8000000000001610000003F83
:108AC00030000003F30000114F51106FFFFFFF61F2
:108AD000446F74410003F30000003F30000003D3F3
:108AE00000000B40F63F39B00000466608CCC16676
:108AF000BC00000016000007C00000D600003F10B8
:108B00000009A00000E400005D00000C700002F10C
:108B100000008B00000E500004E00000A9000000DF
:108B200000157510002EEBEE100AE101E900E800D7
:108B300008E00F60006F01F50005F11F50005F11A4
:108B4000F50006F00F70007E00DA000AC006F61588
:108B5000F60009FFF90000001000000001404AFB88
:108B6000AFADB300BB000BB000BB000BB000BB004F
:108B70000BB000BB000BB000BB00168500004EDB45
:108B8000EE200EA001EA02F30009D0000000BA00B6
:108B900000004F3000002E9000001DB000000CC0FF
:108BA00000000BD100000AF4333310FFFFFFF60082
:108BB00016750004FDBED10EA001E8093000BB000F
:108BC0000000E900067CD1000CDF90000002E90003
:108BD00000009E3F40009D0DD315F701BFFF8000B0
:108BE00000100000000360000001EF000000BFF073
:108BF00000005F8F00001E66F0000AC06F0004F2E4
:108C000006F000D7006F007FDCCEFC8355559F53E4
:108C1000000006F00000006F00056666600EFEEEC4
:108C2000E00F5000001F3000003F4561004FFEFF85
:108C30004027101CE0000004F3000002F5AB000424
:108C4000F34F613DC006EFFC20000110000001431E
:108C500000009FF8000BE400004F300000AB2661DD
:108C600000DDFCEE30EE200CD0F80005F1D9000359
:108C7000F2AD0006F03F914E9005EFFA00000110B2
:108C8000002666666615CCCCCDF30000008D000092
:108C9000000F50000007E0000000E70000006F1028
:108CA00000000D90000005F2000000CB0000004F16
:108CB0003000000BC0000000057500002EEBEE1028
:108CC0000AE001E900DA000AC00AD000DA002EB793
:108CD000BE2001BECFB100BC001DB01F60006F01FF
:108CE000F70007F00AE414EA001AFFFA1000001077
:108CF00000000016850003FEBFB00CC004F51F5035
:108D000000BB2F30008D1F60009E0AE306FE01CFDE
:108D1000FBAC000220C9000005F200249F70009EF9
:108D2000B50066BC000000000066BC000660BC0028
:108D300000000000000000B40F63F39B000000007F
:108D400000500007EF018EF925FC60004ED710009F
:108D500006DFA300004CF00000038AAAAA78AAAAA2
:108D6000A700000004666664BEEEEE905000000EA0
:108D7000E8100016DFA300003AF90006CF739FE861
:108D800010FD60000300000000476200AFCEF43F1A
:108D9000400CC140008E00000CB00009F20007F446
:108DA0000000F800002C3000000000000710000256
:108DB000F400000000000000001210000000006D30
:108DC000FDEE8000000AC40002AC00009B00000021
:108DD000099002F1005B9300E1099007D58E00A590
:108DE0000D401F205C00770F106C007B00781F0087
:108DF000A9008900881F10A800A800B50E308D04B6
:108E0000FA03E00B701DFC4EDD3004E10010001091
:108E10000000AC10000000000008EA77AB00000082
:108E2000001578510000000036000000000CF3002F
:108E3000000002FE900000008D6F0000000E71F532
:108E4000000004F20AB00000AC005F20001F833372
:108E5000F80007FFFFFFE000DA00003F403F40005E
:108E600000DA09E0000007F1466653000AFDDEFC67
:108E700000AD0003F80AD0000CB0AD0001E90AE82B
:108E800089EC10AFAABEC20AD0000CC0AD00007FB2
:108E90000AD00009E0AD4448F80AFFFFD7000001FE
:108EA000686100006FEBEF6003F80009F20BE0006F
:108EB00000F70F900000320F700000001F700000DC
:108EC000000F800000000EA000008508F10002F6EF
:108ED00001EC314DD0002BFFFB10000002000046DA
:108EE0006640000AFDDFF700AD0006F70AD0000873
:108EF000F1AD00002F5AD00000F8AD00000F8AD06D
:108F00000000F7AD00003F4AD0000CD0AD446CF338
:108F10000AFFFE920046666662AFDDDDD6AD000058
:108F200000AD000000AD000000AE777750AFBBBBD6
:108F300080AD000000AD000000AD000000AD333397
:108F400032AFFFFFF846666662AFDDDDD5AD0000EB
:108F500000AD000000AD000000AD444420AFFFFFB5
:108F600090AD000000AD000000AD000000AD0000BD
:108F700000AD0000000001686200006FDBEF7004CC
:108F8000F80008F30BE00000D80E900000000F80FE
:108F90000000000F7004AAA70F900388EB0DB0002B
:108FA00000CB07F30000CB00DE5126F90019FFFECD
:108FB0008000000210004400000260AD000007F1D4
:108FC000AD000007F1AD000007F1AD000007F1AE04
:108FD00077777BF1AFBBBBBDF1AD000007F1AD0012
:108FE0000007F1AD000007F1AD000007F1AD000092
:108FF00007F1359F9F9F9F9F9F9F9F9F9F9F00006F
:109000000053000000E9000000E9000000E9000052
:1090100000E9000000E9000000E9000000E912009A
:1090200000E97F0001F73FA22BF205EFFD400001B0
:109030001000450000163AD0001DD1AD000CE10A29
:10904000D00AF300AD09F4000AD7F70000AFFED054
:10905000000AF72FA000AD006F600AD000AF30AD5E
:109060000000DD0AD00002FA44000000AD0000005C
:10907000AD000000AD000000AD000000AD0000003C
:10908000AD000000AD000000AD000000AD0000002C
:10909000AD333330AFFFFFF3462000000264AF90E2
:1090A00000000AFAAFF000001FFAACF600007FCA19
:1090B000ABAD0000D9CAAC3F3004F3CAAC0D900A86
:1090C000C0DAAD06F01F50DAAD00F67E00DAAD0072
:1090D0009DD800DAAD003FF200DAAD000CB000DA46
:1090E0004500000260AF600006F1AFF10006F1AE8E
:1090F000EB0006F1AD5F5006F1AD0AE106F1AD01FE
:10910000EA06F1AD006F56F1AD000BE7F1AD0001DD
:10911000FFF1AD00006FF1AD00000CF100016861DE
:10912000000005FFCFF60003F90009F300AE0000D0
:109130000EA00E9000009E00F7000007F01F6000D8
:10914000006F10F8000008F00DB00000AD008F2097
:10915000001F8000DD524DE10001AFFFB1000000B3
:1091600002000000466653000AFDDEFE50AD00011D
:10917000BF2AD00001F6AD00001F6AD00008F3AF8F
:10918000AABDF80AE8886200AD0000000AD000001D
:1091900000AD0000000AD00000000001686100007E
:1091A00006FFCEF50004F80009F200BD00000E90A5
:1091B0000F800000AD01F6000008F02F5000007F86
:1091C00001F7000009F00EA00000BC009F10002F66
:1091D0007001ED525DD00002BFFFF5000000021BE0
:1091E000F7000000000870466653000AFDDEFC2010
:1091F000AD0003EB0AD00008F0AD00008F0AD000EC
:109200003EB0AFCCEFB10AE669F200AD000DB00A96
:10921000D0005F40AD0000CC0AD00004F500057717
:1092200030002DFCCFA00BD1003F70F80000AB0C3C
:10923000D10000003EF940000017DFE50000003AD1
:10924000F51400000CC3F50000BD0BE5227F70088B
:10925000EFFE70000011000036666666618DDDFE6F
:10926000DDD20000F800000000F800000000F80067
:10927000000000F800000000F800000000F8000006
:109280000000F800000000F800000000F8000000F6
:1092900000F80000530000162E900002F5E90000CF
:1092A0002F5E900002F5E900002F5E900002F5E9C4
:1092B00000002F5E900002F5E900003F4BD0000651
:1092C000F24FA225EA005DFFF80000001000004503
:1092D000000000457F200000EA1F800004F40BD04E
:1092E000000AE005F3000F8000E8005F20009E0008
:1092F000BC00003F31F600000D96F1000007EBB016
:10930000000001FF50000000BE00003600003500E4
:1093100000454F2000AF1000DA1F6000FF5001F63B
:109320000DA004FBA004F209E008C6E008E005F186
:109330000D71F20CA001F51F30D70F6000D96E003F
:109340008B3F20009CA9004F7E00005FE5000FDBF3
:1093500000002FF0000BF700000EB00006F300260F
:10936000200002620DD0000CE104F7006F5000AF46
:1093700021EB00001EBAF1000005FF60000001FFB4
:109380002000000AFEB000004F66F50000EC00BEB1
:109390001009F3002FA03F800007F445000002628F
:1093A0006F40000BE10DD0003F6004F500BD0000F0
:1093B000BD03F500003F5CC000000AFF3000000163
:1093C000FB00000000F800000000F800000000F8BA
:1093D00000000000F800001666666643DDDDDEFA78
:1093E0000000008F3000003F7000000DC000000939
:1093F000F2000004F6000001EB000000AE100000D7
:109400006F5000001FC4444445FFFFFFFFDFF1DA47
:1094100030D900D900D900D900D900D900D900D954
:1094200000D900D900D900D900DEC167703400002E
:1094300005F100000E6000009C000003F200000C2B
:109440008000006E000001F500000AB000004F101F
:109450000000E7000008D000002F40EFF028F006E1
:10946000F006F006F006F006F006F006F006F0064C
:10947000F006F006F006F0BDF06770001500000879
:10948000F30000EE90005E5F000C80E602F207D071
:1094900013001400FFFFFFF3222222202E8004F38A
:1094A00000330027970005FB9ED10B9001F60000CA
:1094B00012E802AFEDF80DB100E81F5000E80EC34E
:1094C0003BF804EFF9DB00010000E8000000E800D1
:1094D0000000E8000000E8388300EDDADF40EC002F
:1094E0000CD0E80005F1E80003F3E80004F2E9001D
:1094F00007F0EF615F90E9CFFB000001100000175B
:10950000960003FC9DE10CB000D91F5000454F3080
:1095100000003F3000000F70006708F415F6009F50
:10952000FF70000010000000008D0000008D0000A2
:10953000008D0028848D04FDADED0CC000CD1F50C2
:10954000008D3F30008D2F40008D0F80009D08F56D
:1095500015FD00AFFC9D000110000016971002EDF4
:10956000AED10CC001E81F50009C3FFFFFFE3F63DF
:1095700033320F80000009F612C8008FFFA10000EF
:109580002000000020005EF800EA1002F40039F923
:10959000705BFBA003F40003F40003F40003F40089
:1095A00003F40003F40003F4000028943604FDAD36
:1095B000DE0CC000CE1F60008E3F30008E2F4000BA
:1095C0008E0F80009E08F515FE00AFFCBE00011056
:1095D000AC077003F703EFEFA000034200E80000C0
:1095E0000E800000E800000E838830EDDADF3ED008
:1095F00000E9E8000BBE8000BBE8000BBE8000BBAA
:10960000E8000BBE8000BB54CB0055CACACACACA08
:10961000CACACA006300E90000006400D900D9008A
:10962000D900D900D900D900D900D900D900E86EF5
:10963000F32520E8000000E8000000E8000000E852
:10964000001730E801DC00E80CD100E9CD1000EF94
:10965000FB0000EE6F7000E807F400E800BE10E8C1
:10966000001EB0CACACACACACACACACACACACA6351
:109670003883038840EDDADF9EACF6EB000EF20093
:10968000BCE8000BC0008EE8000BB0008EE8000BB9
:10969000B0008EE8000BB0008EE8000BB0008EE842
:1096A000000BB0008E6338830EDEADF3ED000E9E2E
:1096B0008000BBE8000BBE8000BBE8000BBE800052
:1096C000BBE8000BB000179710002EDADF400CC08B
:1096D00000BE01F50003F33F30001F52F40001F417
:1096E0000F80006F208F514EA0008FFF900000026E
:1096F000000063498300EDDAEF40EC000CD0E80095
:1097000006F1E80003F3E80004F2E80008F0EE4197
:109710005F90EBCFFB00E8011000E8000000E800DC
:109720000000320000000028843604FD9DED0CC0CE
:1097300000CD1F50009D3F30009D2F40009D0F80A9
:10974000009D09F515FD00BFFDBD0001109D000045
:10975000009D0000009D0000002363591EDFC2ED44
:10976000100E8000E8000E8000E8000E8000E80087
:10977000000038850006FBAFC00E9003F40CC20059
:109780000002CFD81000026DE2192001F60EB216C9
:10979000F302CFFE60000010000270006F106AF844
:1097A00049CFA606F1006F1006F1006F1006F10018
:1097B0004F4100CFA000107300055E8000BBE800A1
:1097C0000BBE8000BBE8000BBE8000BBD9000BBA0B
:1097D000E327FB2DFFBCB0011000460000726F10A4
:1097E00005F20F600AB00AB00F6004F14F1000E6F6
:1097F0009A00009BE500003FE000000D900046004D
:10980000044000646F000EE000F61F403FF204F1D8
:109810000C808AB708C008D0D56C0C8003F3F11F08
:109820002F3000ECB00CBE0000AF6007F900005F05
:109830002002F500371002720EA00BD004F46F3036
:1098400000ADE800001FE000005FF40001E8AD009B
:109850000AE01E905F4006F4560001727F1007F187
:109860001F600CB00CB01F5006F16F0001F6BA007B
:1098700000ACF400005FE000000E9000001F40000C
:10988000008D00004EF4000015200000177777715E
:109890002BBBBEF100003F700001EB00000BE100AC
:1098A000007F300003F700001EC333315FFFFFF677
:1098B000000040000BD1007E1000CA0000D900005B
:1098C000D90000F8003BE2006FB00002F60000D9BA
:1098D0000000D90000CA0000AD00002F800002A1E6
:1098E00033A8A8A8A8A8A8A8A8A8A8A8A8A810317C
:1098F0000008F30009E0004F2003F3003F3001F5BA
:109900000009E6004FB00F8002F4003F3003F3007F
:109910006F003E800860000031000003EFF7006C2C
:10992000CA06FB7E783003BC7000000000000373A1
:109930000000000049EFFB000005AFFFFFFB000047
:109940005FFFFFFFFB00006FFFFFFFFB00006FFFEB
:10995000FFC78B00006FFB61006B00006C00000014
:109960006B00006B0000006B00006B0002658B0059
:10997000006B009FFFFB00116B00EFFFFA5EFFEB37
:10998000003CFEA1FFFFFB000000007FFFE40000A1
:1099900000000033000000000039999999999999C5
:1099A0009940EB9EE9999999DF9AF1F209900000AC
:1099B000006B00F2F52B900000006D23F2FFFF908A
:1099C0000000006FFFF2F30A900000006C01F2F259
:1099D00009900000007B00F2FDBFFBBBBBBBEFBCEE
:1099E000F2F96DD6666666CE68F2F2099000000064
:1099F0006B00F2F74C900000006D45F2FEDF900026
:109A000000006FEEF2F209900000006C00F2F20923
:109A1000900000007C00F2CEDFFDDDDDDDFFEEE03A
:109A200004444444444444441069992089999999D0
:109A300096FFFF84FFFFFFFFFFFFFF94FFFFFFFF85
:109A4000FFADDD41CDDDDDDDDA000000000000000E
:109A500000CFFF62EFFFFFFFFCFFFF94FFFFFFFF60
:109A6000FFFFFF83FFFFFFFFFF3666105666666647
:109A7000633666105666666663FFFF83FFFFFFFF6F
:109A8000FFFFFF94FFFFFFFFFFCFFF62EFFFFFFF2E
:109A9000FC000000000009600000000000BFF600AC
:109AA0000000000BFFFC02500000BFFFE33FF80086
:109AB0000BFFFE30DFFF80BFFFE3005FFFFDFFFE17
:109AC000300005FFFFFFE30000005FFFFE300000F5
:109AD0000005FFE200000000005C200000000330F1
:109AE00000005004FF5000BFC0EFFF50CFFF77FFD2
:109AF000FFDFFFE207FFFFFFE20008FFFFE20000D9
:109B0000BFFFFF5000BFFFFFFF50BFFFE9FFFF4D4A
:109B1000FFE208FFF61DE20007F800000000000069
:109B200000000096000000000004FF000000001587
:109B300004FF02500002DF74FF0CFA000CFF34FF38
:109B400007FF806FF404FF009FF1BFA004FF000E29
:109B5000F7EF6002FE000AFAFF4000210009FADF79
:109B6000700000000CF99FD00000003FF42FFA00B5
:109B70000001DFD008FFC5237EFF30008FFFFFFF0D
:109B8000F4000003AFFFE910000000001100000026
:109B900000000499100000001209FF40300002EE9E
:109BA0007EFFB9FA000AFFFFFFFFFF5001EFFFFF42
:109BB000FFFB0013FFF812BFFC20FFFFC0001FFFD8
:109BC000FBFFFFA0000EFFFB9CFFE1004FFFC60064
:109BD000DFFD79FFF90005FFFFFFFFFF2007FFFF13
:109BE000FFFFFF40008A1BFF72C500000008FF3026
:109BF0000000000000220000000000799930000001
:109C0000006D99AF1000344D9444E8442DFEDDDD25
:109C1000DDDFE70D40000000B600D43315060B6011
:109C20000D4994D0F2B600D4994D0F2B600D499494
:109C3000D0F2B600D4994D0F2B600D4994D0F2B6F6
:109C400000D42203030B600D50000000C6007FFF0C
:109C5000FFFFFE100012222222000000000015006B
:109C600046300000003EFD2BF90000005FC5EEDF2E
:109C70009000007FA6E5CFF90000AF88FFF7AFB0F6
:109C800001CF6BFFFFF97FB19E5DFFFFFFFC6F709F
:109C90001BFFFFFFFFF92000BFFFB9CFFF90000BB4
:109CA000FFF406FFF90000BFFF406FFF900009FFBF
:109CB000F406FFF700000002BBA000000000004F08
:109CC000FF200000000004FFF200000000004FFF32
:109CD000200000000126FFF421000001FFFFFFFF2C
:109CE000E0000004FFFFFFF300000004FFFFF300AB
:109CF00000000004FFF3000006999925E3499994B8
:109D0000FFFFFE304FFFFFDFFFFFFFEFFEFFEDFF26
:109D1000FFFFFFFF8BB8DCFFFFFFFFFFFFFA00260E
:109D2000666666600000DFFFFFFFF80004FA444447
:109D300044EE000BF20000007F602FB00000001F17
:109D4000D08F5000000009F4DE2210000125F9FF39
:109D5000FFD0002FFFFBFFFFF966BFFFFBFFFFFFF8
:109D6000FFFFFFFBFFFFFFFFFFFFFBEFFFFFFFFF1B
:109D7000FFF900002788500000001BFFFFFF7099CB
:109D800002EFFECCFFFEFB0DFF600019FFFB6FF43E
:109D9000000009FFFBBFA000004FFFFA1200000007
:109DA00002222000000000000000799980000007D6
:109DB00094FFFFC000003FF4FFFF100001DFC0FF71
:109DC000FFD5237EFF30FC8FFFFFFFF4007103BF40
:109DD000FFE910000000001100000000000000007A
:109DE000009D00009FD0009FFDEFFFFFDFFFFFFD04
:109DF000FFFFFFDFFFFFFD799FFFD0003EFD00006A
:109E00003ED000003800000000000000009D00006F
:109E100000009FD00000009FFD0000EFFFFFD0A6D4
:109E20000FFFFFFD04F1FFFFFFD00E3FFFFFFD0A14
:109E3000D0799FFFD04100003EFD000000003ED0E1
:109E400000000000380000000000000000000000DA
:109E50000000000E8000000009D0002CC0000009A6
:109E6000FD00D70BA00009FFD003D91F3EFFFFFD67
:109E70000A62F299FFFFFFD04F1B76BFFFFFFD0084
:109E8000E3985DFFFFFFD0AD0D57A799FFFD0417C5
:109E9000E0C70003FFD00AF35E000003FD00614F3E
:109EA0005000000380009F600000000000082000B8
:109EB000399999999999999940EA9999999999997A
:109EC00099F1F202200000000000F2F26FF60000AB
:109ED000000000F2F2AFFA0000470000F2F24FF487
:109EE0000004FF8000F2F20000004FFFF800F2F2E1
:109EF000002504FFFFFF70F2F202EF8FFFFFFFD09B
:109F0000F2F22EFFFFFFFFFFD0F2F2BFFFFFFFFFD5
:109F1000FFD0F2F29DDDDDDDDDDDB0F2F20000000C
:109F200000000000F2AFFFFFFFFFFFFFFFC00122B4
:109F30002222222222220000000000015000000004
:109F400000002EFA0000000000BFFFA00000002B60
:109F50002DFFF6000002ECD2DFF400002EBCFD2D38
:109F6000500002EACFFFD000002EBCFFFF500002DD
:109F7000EBCFFFF500002EDCFFFF500000E8AFFF45
:109F8000F5000000F40AFF50000000FF44F5000057
:109F90000000FFFF50000000002221000000000030
:109FA0007910000031FF400003F2FF40003FF2FF54
:109FB0004003FFF2FF403FFFF2FF43FFFFF2FF8F3E
:109FC000FFFFF2FFEFFFFFF2FF5BFFFFF2FF40BF7B
:109FD000FFF2FF400BFFF2FF4000BFF2FF40000B1B
:109FE000F2FF300000C2110000000071000000000C
:109FF000000FF80000000000FFFE600000000FFFEF
:10A00000FFC3000000FFFFFFFB20000FFFFFFFFF6B
:10A010009100FFFFFFFFFFF80FFFFFFFFFFFF4FFBF
:10A02000FFFFFFFFA10FFFFFFFFB2000FFFFFFD49B
:10A0300000000FFFFE60000000FFF8000000000FAE
:10A0400091000000000010000000000000799995C8
:10A0500000799995FFFFFB00FFFFFBFFFFFB00FF6F
:10A06000FFFBFFFFFB00FFFFFBFFFFFB00FFFFFB12
:10A07000FFFFFB00FFFFFBFFFFFB00FFFFFBFFFFFE
:10A08000FB00FFFFFBFFFFFB00FFFFFBFFFFFB00F1
:10A09000FFFFFBFFFFFB00FFFFFBFFFFFB00FFFFDE
:10A0A000FBFFFFFB00FFFFFBFFFFFA00FFFFFA12C1
:10A0B00022200012222079999999999995FFFFFF02
:10A0C000FFFFFFFBFFFFFFFFFFFFFBFFFFFFFFFFA8
:10A0D000FFFBFFFFFFFFFFFFFBFFFFFFFFFFFFFB9C
:10A0E000FFFFFFFFFFFFFBFFFFFFFFFFFFFBFFFF88
:10A0F000FFFFFFFFFBFFFFFFFFFFFFFBFFFFFFFF78
:10A10000FFFFFBFFFFFFFFFFFFFBFFFFFFFFFFFF67
:10A11000FBFFFFFFFFFFFFFA122222222222204034
:10A1200000000880F500002FF2FF50002FF2FFF52D
:10A13000002FF2FFFF502FF2FFFFF52FF2FFFFFF7E
:10A140007FF2FFFFFFEFF2FFFFFD3FF2FFFFD12F96
:10A15000F2FFFD102FF2FFD1002FF2FD10002FF2C1
:10A16000D100001FF10000000110000000420000BB
:10A1700000000005FE20000000005FFFE20000007C
:10A1800005FFFFFE2000005FFFFFFFE20005FFFF6D
:10A19000FFFFFE205FFFFFFFFFFFE2566666666679
:10A1A000666456666666666663FFFFFFFFFFFFFB39
:10A1B000FFFFFFFFFFFFFBEFFFFFFFFFFFF90000C7
:10A1C000000500000000AFC000000AFFF80000AF6B
:10A1D000FFD1000AFFFD1000AFFFD1000AFFFD1004
:10A1E000007FFFE100002EFFF8000002EFFF80007B
:10A1F000002EFFF8000002EFFF8000002EFFF600A7
:10A200000002EFF30000002C400042000000005F5D
:10A21000E20000001FFFE20000007FFFE2000000FC
:10A220007FFFE20000007FFFE20000007FFFE2000E
:10A2300000009FFFE000002EFFF700002EFFF70058
:10A24000002EFFF700002EFFF700001EFFF80000B1
:10A2500000BFF800000000A70000000000001896F2
:10A260000000000006FFF0000000006FFF0000008B
:10A270000006FFF0000000006FFF00000CFFFFFF72
:10A28000FFFFF6FFFFFFFFFFFF9FFFFFFFFFFFF84E
:10A290003666AFFF6666100006FFF0000000006F34
:10A2A000FF0000000006FFF0000000003FFC00007F
:10A2B00000CFFFFFFFFFFF6FFFFFFFFFFFF9FFFF73
:10A2C000FFFFFFFF83666666666661000000088028
:10A2D0000000000000005FF5000000000000DFFD4E
:10A2E000000000000006FFFF60000000000EFDDF20
:10A2F000E0000000008FB00BF800000001FFC00C70
:10A30000FF10000009FFC00CFF9000002FFFD00DD0
:10A31000FFF20000BFFFF99FFFFB0003FFFFF99F63
:10A32000FFFF300CFFFFD00DFFFFC05FFFFFE22EED
:10A33000FFFFF5DFFFFFFFFFFFFFFDCFFFFFFFFF89
:10A34000FFFFFC0222222222222220000000000025
:10A350000021000000000000006D10666300001581
:10A3600066AFD1FFFFC105FFFFFFFCDDEFFC4FFF34
:10A37000DDEFF50004F8EFC1006F50000077FF201B
:10A3800000550000000DFA0000000000005FF5001D
:10A390000021000000DFBB70006D10667DFF5FF9DB
:10A3A00066AFD1FFFFF60CFFFFFFFCDDDA30007C6B
:10A3B000DDEFF50000000000006F5000000000001D
:10A3C00000550000000002200000000000003FF3E4
:10A3D000000000000003FFFF30000000003FFFFF0F
:10A3E000F300000003FFFFFFFF3000003FFFF66FA8
:10A3F000FFF30003FFFF6006FFFF301FFFF60000C2
:10A400006FFFF10AFF60000006FFA0009600000049
:10A4100000690000B8000000008B000CFF80000005
:10A4200008FFC01EFFF800008FFFE102DFFF800879
:10A43000FFFE20002EFFF88FFFE2000001DFFFFF8C
:10A44000FE200000001DFFFFE20000000001DFFE13
:10A450002000000000001DE20000000000000110CC
:10A46000000000000200444444443000007F51DFFB
:10A47000FFFFFFD00005FFF32FFFFFFFD0003FFFDE
:10A48000FE1000006FD000DFFFFFB000006FD000B3
:10A4900034CFB42000006FD00000BF90000059CF2F
:10A4A000F98000BF9000006FFFFFD000BFB44444AC
:10A4B0000AFFFE2000BFFFFFFF80CFF40000BFFFB8
:10A4C000FFFFF31D6000079996000000000BFFFFDF
:10A4D000F900000000FFFFFFE44444420FFFFFFFCC
:10A4E000FFFFFFF5FFFFFFFFFFFFFFCFFFFFFFFFB6
:10A4F000FFFFFDFFFFFFFFFFFFFFDFFFFFFFFFFF8E
:10A50000FFFDFFFFFFFFFFFFFFDFFFFFFFFFFFFF7D
:10A51000FDFFFFFFFFFFFFFFDEFFFFFFFFFFFFFB72
:10A520004EFFFFFFFFFFFD300000000000000000B5
:10A53000000007F5000000000007FFF50000000024
:10A5400007FFFFF500000007FFFFFFF5000001FF18
:10A55000FFFFFFE000000004FFF200000000004FDA
:10A56000FF200000000004FFF200000000004FFF89
:10A57000200000366651998056663FFFFF84449F55
:10A58000FFFDFFFFFFFFFFFFFFDFFFFFFFFFF6BB4A
:10A590006DEFFFFFFFFFFFFFB022222222222220C9
:10A5A00004800000000005FF8000000000DFFF10B5
:10A5B0000000000FFFF700000000DFF900000000BE
:10A5C00007FF10000000001FF900000000008FF5D9
:10A5D0000000000000CFF50007100001DFF919FFAF
:10A5E000800001CFFFFFFF8000008FFFFFF400001D
:10A5F0000017DFC50002640000000000006FFFE6E6
:10A600000000000020EA02AF5000005969EA000B88
:10A61000C0004A40676FA43DD02960094006EFFFA3
:10A620007D8002A200000232A79049000000378717
:10A6300092677A30000AFFEFA9D70086009F600B6F
:10A64000C006920580E8000DB00007812ADC56DFC5
:10A6500030000019A63DFFB200000000000010000D
:10A66000000000000000004ABBBA0000000005FD29
:10A67000666E400000005FBB000D40000005F46BFB
:10A68000000D5444425F627B000DFEDDEEEFFFF8EB
:10A69000004FE6002FF2000003F6B6002FF2000094
:10A6A0003F60B6002FF20000EEBBE6002FF2000480
:10A6B000E66650002FF20004D00000002FF544475A
:10A6C000D00000002FADDDDED00000002F00000420
:10A6D000D00000002F000004D00000002F00000375
:10A6E000FDDDDDDDEE00000034444444426999990B
:10A6F00099971000FAEFFE99FCE200F2BFFB00F21E
:10A700008E20F2BFFB00F208E2F2BFFB00F200A9CC
:10A71000F29FFFFFF1006BF202222210006BF200A9
:10A72000000000006BF239999999816BF2BC9999FC
:10A7300099E66BF2B6000000B66BF2B6000000B608
:10A740006BF2B6000000B66BEFFFFFFFFFFFF902F0
:10A750002222222222200199940006FFF4000AFFFF
:10A76000E0000EFF80001FFF348A5FFFFFF99FFFAC
:10A77000FFF2DFFCFFA07401FF300005FB000009C1
:10A78000F400000CC000000F5000004D00000086D7
:10A790000000002000000000000660000000000033
:10A7A000004EE400000000002DFFFFD2000000007A
:10A7B000DFFFFFFE00000006FFFFFFFF6000000953
:10A7C000FFFFFFFF9000000AFFFFFFFFA000000B4C
:10A7D000FFFFFFFFB000000EFFFFFFFFE000003FA4
:10A7E000FFFFFFFFF300009FFFFFFFFFF90003FFE4
:10A7F000FFFFFFFFFF302EFFFFFFFFFFFFE23EFFE7
:10A80000FFFFFFFFFFE2000002BFFF20000000008B
:10A81000009BFA0000000000000220000000144429
:10A8200044444444444420EEDDDDDDDDDDDDDDF186
:10A83000F200000000000000F2F2B66B2F0D499408
:10A84000D0F2F2100102010114D0F2F28B6390B148
:10A85000844CD0F2F246315060422650F2F2422649
:10A860006666663150F2F2844BBBBBBB6390F2F478
:10A8700022222222222222F2BFFFFFFFFFFFFFFF40
:10A88000C000000000000320000000003BF70000B3
:10A890000003BFFE0000003BFFFF700003BFFFFF8F
:10A8A000E0003BFFFFFFF700BFFFFFFFFE00056674
:10A8B000669FFF7000000004FFE0000000004FF7FB
:10A8C0000000000004FE00000000004F70000000C7
:10A8D0000003E00000000000010000008BBBBBBBD8
:10A8E000010000FFFFFFFF0C2000FFFFFFFF0DE254
:10A8F00000FFFFFFFF0DFE20FFFFFFFF0BDDC1FF8D
:10A90000FFFFFF300000FFFFFFFFFFFFFBFFFFFF28
:10A91000FFFFFFFBFFFFFFFFFFFFFBFFFFFFFFFF4F
:10A92000FFFBFFFFFFFFFFFFFBFFFFFFFFFFFFFB43
:10A93000FFFFFFFFFFFFFBFFFFFFFFFFFFFBFFFF2F
:10A94000FFFFFFFFFBEFFFFFFFFFFFFA244444443C
:10A950004444400000004688751000000003AFFF2B
:10A96000FFFFFC500001AFFFFDCCDFFFFD302DFFEE
:10A97000D61011005BFFF54FF705BFFFFC714EF9D4
:10A980000433DFFFFFFFFF6160000FFFB63249FFB6
:10A99000F4000005D317AB822C9000000005FFFFE8
:10A9A000FF900000000005FFBAEF900000000000DB
:10A9B00031230400000000000002FF6000000000DE
:10A9C000000000590000000016666666666666664E
:10A9D00066400DCBBBBBBBBBBBBBBBBF40F21222B7
:10A9E000222222222220B60F2BFFFFFFFFFFFFFFB4
:10A9F0002BB1F2BFFFFFFFFFFFFFF26D8F2BFFFFB9
:10AA0000FFFFFFFFFF2099F2BFFFFFFFFFFFFFF2F5
:10AA1000099F2BFFFFFFFFFFFFFF2099F2BFFFFF02
:10AA2000FFFFFFFFF2BF6F28BBBBBBBBBBBBBB1BAA
:10AA300070F42222222222222222C608FFFFFFFFD8
:10AA4000FFFFFFFFFD101666666666666666664077
:10AA50000DCBBBBBBBBBBBBBBBBF40F21222222298
:10AA600022210000B60F2BFFFFFFFFFFB0000BB14C
:10AA7000F2BFFFFFFFFFFB00006D8F2BFFFFFFFF0B
:10AA8000FFB0000099F2BFFFFFFFFFFB0000099F2E
:10AA90002BFFFFFFFFFFB0000099F2BFFFFFFFFF9A
:10AAA000FB0000BF6F28BBBBBBBBBB80000B70F4BF
:10AAB0002222222222222222C608FFFFFFFFFFFFBE
:10AAC000FFFFFD10166666666666666666400DCB1D
:10AAD000BBBBBBBBBBBBBBBF40F2122222220000F0
:10AAE0000000B60F2BFFFFFFF40000000BB1F2BF18
:10AAF000FFFFFF400000006D8F2BFFFFFFF4000001
:10AB0000000099F2BFFFFFFF40000000099F2BFFEC
:10AB1000FFFFF40000000099F2BFFFFFFF400000BC
:10AB200000BF6F28BBBBBBB30000000B70F4222238
:10AB3000222222222222C608FFFFFFFFFFFFFFFF83
:10AB4000FD10166666666666666666400DCBBBBB24
:10AB5000BBBBBBBBBBBF40F2122210000000000019
:10AB6000B60F2BFFFD00000000000BB1F2BFFFD0BD
:10AB700000000000006D8F2BFFFD000000000000B2
:10AB800099F2BFFFD00000000000099F2BFFFD00DD
:10AB9000000000000099F2BFFFD00000000000BFDD
:10ABA0006F28BBBA00000000000B70F422222222A2
:10ABB00022222222C608FFFFFFFFFFFFFFFFFD103A
:10ABC000166666666666666666400DCBBBBBBBBB3B
:10ABD000BBBBBBBF40F20000000000000000B60F8E
:10ABE00020000000000000000BB1F2000000000097
:10ABF0000000006D8F20000000000000000099F2AE
:10AC00000000000000000000099F2000000000007C
:10AC100000000099F20000000000000000BF6F205B
:10AC2000000000000000000B70F4222222222222E9
:10AC30002222C608FFFFFFFFFFFFFFFFFD100000FD
:10AC400059AA83000001DFFDFFFA0000CFFF58FF83
:10AC5000F8004FFFF508FFF109FFEF5408FF50DF40
:10AC600072E5790CF80FFF523517FFA0FFFF500770
:10AC7000FFFB0FFFFC01EFFFC0FFFC1002EFFB0E1C
:10AC8000FC175752EF90CF97F5752DF708FFFF503F
:10AC90002DFF302FFFF52DFFD0007FFF7DFFF3004C
:10ACA000006EFFFFC3000000023310000000000030
:10ACB000200000005F000100000000000000000014
:10ACC0000000000001F0000093026000E804002092
:10ACD0000000000032000200E0070000FCAC0008A9
:10ACE000000000208C0C00001002000858B300087F
:10ACF0008C0C00209C400000260F000832018210BE
:10AD0000032524F413E6881B08E7041AE9041AEC67
:10AD1000041AF0041AF5041AFB04130289E208630A
:10AD2000F00310082004020D01FF0D100820050497
:10AD30000401081525F0090A0C2251140909101301
:10AD4000FE9915C00B0C0D2BFFE7181908172801E9
:10AD5000D0020204180D082C018005051101FC57D2
:10AD6000019008111008FC8201E006070810080491
:10AD70009E0110090909100801C7012003030510ED
:10AD800008FDCF0170040502180F04D4013004023D
:10AD90000301FFD701A006074819141B0909081A67
:10ADA000400814050C012A5E1019781A94081A0834
:10ADB000185AC8103AFE104D01FF3203081A6608EF
:10ADC00029182A9C0819282AD7181910100F0704C7
:10ADD000E003020A01FF11046003030C1EFD2304BB
:10ADE000200890180D013F04D00807050103510405
:10ADF00060102F01016D04900780179B04600E0EF8
:10AE0000101FFC0B05700A0B401C4D05F058120179
:10AE10001A831029E82DC405800A101CFA05206049
:10AE200012012D2A06E008083C5A06E0201E9B0667
:10AE3000700B0A101ED706600402082DE306D00826
:10AE4000B83C170710383C4D07A030137D071B0E88
:10AE50000C084BC507301301081B0B0B283C490895
:10AE600020282A7F10120E3DFECC08E0803C02090B
:10AE700080D81E3D0990090A981E7909600A09F8D0
:10AE80002DB409300A101EF009300E0E083C440A99
:10AE900010103C800AA0281CBC0A904021280DF20A
:10AEA0000A4004041001FD120B9006E82B400B1021
:10AEB000111008FD600BB0060707100805790B405C
:10AEC0000708021008FE810BF0040403100809872C
:10AED0000BB008080A14FFAF0B1B0908683CE30B12
:10AEE00060102B0B0C10113DFF3F0C801027670CDE
:10AEF0009005060D4A8E181FFCC20CD00807B01E24
:10AF0000EC0CE0030208380CF80CD0030410FFFC32
:10AF1000180D20F84B480D1813540D150E0C09018F
:10AF20001B8A0D3019081EAA0D200909503BD70DA8
:10AF3000703DFC0B0E20501E3F0E700505203C5648
:10AF40000E4070177E0E4005050C1CFF9C0E38202D
:10AF50000A0A01FFBF0EC007080913E30E1B0C0C01
:10AF6000083C190FF0102D3D0F9007405A71101E2C
:10AF7000950F700506F01BC50F801D0F01FDD41045
:10AF80001A0510180EFC0FE00A090401030E10B098
:10AF90000D0E101E7E1020111208130E111B101022
:10AFA000D81A7608140E0B01380BC311900C0B0C39
:10AFB00001FF0512282BFE7508120F1FFEDE1290EE
:10AFC0000C0D08274013E00E0F0C2A9A08220E1BC6
:10AFD00003142019102A570819201EC014E0060770
:10AFE000101EEA14500A0B083B2C15281CFF95155F
:10AFF0007019204B1C16281E851620090A084BD0F4
:10B0000016584B3217185A9B084B0418203C4F18FF
:10B01000C060180AA318700B0A0F01FFEE08130B8B
:10B020000F1CFF41193819B82A960812041C04B0E5
:10B0300019C819B01B301A0819202AA808220A4A70
:10B04000F8081CFF481B80220B1BAB1B9019381BF8
:10B050000D1C0819304B851C481BDA1C28120E1CCD
:10B06000FE4A1D0812114CFDD21D88133B1E140808
:10B0700008104CFD7B1E184B031F481B661F381918
:10B08000301BC11F2819181E3820501212481EAD3F
:10B0900020901415B04B2B21085AA9084B272208E1
:10B0A0005AA5081E2323B00D0D38211207120A12CB
:10B0B0000B120C12101212121312141218121B126D
:10B0C00020122512261227123D123F1247124A1251
:10B0D0004B124C1250125112521253126612671236
:10B0E000701273127612771278127A1292129412E8
:10B0F000C312C412C612E612F210151B0123015A24
:10B1000001EA013F0240024102420243029202125E
:10B110000142023302031204031104051E0607084C
:10B12000090A8519D31F0F0C0C0910118B50080D3B
:10B13000141516171819141A1B1C131D1E221F1282
:10B1400020151F1F211B1222122307362425262417
:10B15000272849922B03028DF506070608120912CB
:10B160000A320B1904420C1A0B02199B199823136B
:10B170001432151216561717171817200F19191A07
:10B1800019171B1C1D1E1F20211F220240230216FF
:10B19000FB72F3B2F113FAF913FEF83AF6D3011188
:10B1A00019E00211030228EB021CE4598412F82270
:10B1B000FF15F0FEF5F762F4190F15FEFFFAFCE239
:10B1C000021AFD02110213F91917717AFC41B17AC2
:10B1D000FEF9292929468BFDFB33011379F03BFE4B
:10B1E000FE3D7BFEFD2F3AE3FD7ADF231AFC1A2990
:10B1F0001E89225129BA298C0A180268091B82313A
:10B200008AF8CF69FE39BF2AFB19116AD669190E6F
:10B2100015DEF9EAEEA2E284FBEFF532D812EF4A2E
:10B22000E7AB19431AFFCF19033A02A1E112FBBBA6
:10B23000FDFE7101122AF63C0A10FA39311BE5E3D2
:10B240001F1CFDE2FE5A395D1BF2F40313F7F246B0
:10B25000F4F7F9F6F912031AE4291AF74169BA1A50
:10B26000FA101AFA712BFDFF0E39041AF12B294F2F
:10B27000599E1B02FC1F1AFCF639365915298019F4
:10B28000137910190C290F5AFDBB1DFC03FAE62394
:10B290001808F4FCF4FE02F4020111180C02F7F88D
:10B2A000FDFBF8FBF9FDFBFE2689F93A02467159D0
:10B2B00046ABFEFD152911597D0111021CF84933D9
:10B2C0005992011612FF1AFE2629FB011F09147F4D
:10B2D000B91D12020210033A02CF890E0237F3C9D8
:10B2E0007E0A1CEF2B1AFD2E3202F2F12CFBFE021D
:10B2F0004912062A021E09226C2928E9B34AFE4691
:10B30000C1E9690925D2D9460927230916181370FE
:10B310000614204C051B20DE04232823131B89233D
:10B3200008581420B0AC1408E80B13201083023026
:10B3300013C34F1B0895042312041AF81C013C1375
:10B3400099851408C5841B0851081A49081A750400
:08B350001A9D04011400000025
:0400000508000131BD
:00000001FF
