:020000040800F2
:100000003004002045010008F7080008CD0400086E
:10001000F5080008B1010008890A00080000000086
:10002000000000000000000000000000B10900080E
:10003000B301000800000000F9080008B309000837
:100040005F0100085F0100085F0100085F01000810
:10005000B50100085F0100085F0100085F010008AA
:100060005F0100085F0100085F0100085F010008F0
:100070005F0100085F0100085F0100085F010008E0
:100080005F0100085F0100085F0100085F010008D0
:100090005F0100085F0100085F0100085F010008C0
:1000A0005F0100085F0100085F0100085F010008B0
:1000B0005F0100085F0100085F0100085F010008A0
:1000C0005F0100085F0100085F0100085F01000890
:1000D0005F0100085F0100085F0100085F01000880
:1000E0005F0100085F0100085F0100085F01000870
:1000F0005F0100085F0100085F0100085F01000860
:100100005F0100085F0100085F0100085F0100084F
:100110005F0100085F0100085F0100085F0100083F
:100120005F0100085F0100085F0100085F0100082F
:10013000DFF80CD000F02AF800480047C90A000890
:10014000300400200648804706480047FEE7FEE7E7
:10015000FEE7FEE7FEE7FEE7FEE7FEE7FEE7FEE777
:10016000410A000831010008D2B201E000F8012B79
:10017000491EFBD270470022F6E710B513460A4627
:1001800004461946FFF7F0FF204610BD064C074D08
:1001900006E0E06840F0010394E807009847103457
:1001A000AC42F6D3FFF7C8FFF80A0008180B0008A6
:1001B000FEE7704700F050B8064A0021D1610649B9
:1001C0000A6942F002020A614861086940F0400091
:1001D000086170471000002000200240044B0022FC
:1001E000DA61044A136943F0010313610180704727
:1001F000100000200020024014480022C168CB06F5
:10020000134904D5CA6942F00202CA611022C368C8
:100210005B0705D5CB6943F00103CB6142F00402D3
:10022000C369DB0707D0CB6943F00403CB61C16925
:1002300021F00101C161A2F58071013901D0C260D4
:100240007047C16921F00101C1617047002002407F
:1002500010000020704700002DE9F0413E4DE86895
:100260003E4CC0064FF0FF374FF0000602D4E8685E
:10027000400708D5D4F80880A760FFF7BDFF4046C7
:1002800000F06EF82670E868800653D52020E860FC
:100290002078F8B1207801281DD02078022833D0AA
:1002A0006068401E60606068B0B3A068801CA06099
:1002B000A06821696269090C41EA0241120C2161BE
:1002C0006261296921F0010129612169626989B2AC
:1002D000FFF784FF2EE06068401E6060606868B1D0
:1002E000A068FFF7B7FFA06800F50060A06029696B
:1002F00021F002012961FFF75FFF1BE03846A7608C
:100300002670FFF7A7FF15E0286920F00400286198
:100310000020FFF79FFF0CE0FFE72078032817D0AD
:1003200020780428A06815D0B0F10600FFF792FFEE
:10033000A76026702078002808D1286920F00700DF
:100340002861286920F4A05028612676BDE8F08154
:10035000A068EBE7801EE9E70020024010000020C3
:10036000704700000248816802781144816070473C
:1003700000000020074810B5016841F0100101603D
:10038000032000F07DF8002000F006F800F024F8CB
:10039000002010BD0020024070B50D4D04464FF402
:1003A0007A712878B1FBF0F00A490968B1FBF0F0E6
:1003B00000F078F848B9102C07D200222146501ED0
:1003C00000F03EF800206C6070BD012070BD0000A0
:1003D000000000200C000020104808B5816941F0A1
:1003E00001018161816901F001010091C16941F060
:1003F0008051C161C069002200F080500090114618
:10040000042000F01DF8042000F00CF804484168B6
:1004100021F0E06141F00071416008BD0010024030
:1004200000000140002809DB00F01F02012191407B
:100430004009800000F1E020C0F800117047000082
:10044000F0B40E4B1B680C46C3F30223C3F107053F
:10045000042D00D90425191D072901D2002300E02D
:10046000DB1E012606FA05F1491E214099409E40F7
:10047000761E16403143F0BC00F007BB0CED00E0E7
:10048000064900F0070208684FF6FF03184040EAEB
:100490000220034A10430860704700000CED00E0A2
:1004A0000000FA0510B5401EB0F1807F01D3012095
:1004B00010BD4FF0E02460610F21601700F0E5FAF5
:1004C0000020A06107202061002010BDFEE7000091
:1004D000044908B58A6902438A618969014000912B
:1004E00008BD000000100240044908B58A690243B3
:1004F0008A6189690140009108BD00000010024036
:10050000044908B58A6902438A61896901400091FA
:1005100008BD000000100240F0B50A68C2F30F25C4
:1005200095FAA5F2B2FA82F369E001229A402A42D2
:1005300064D0082B03D240F201129A4006E0A3F1E6
:1005400008024FF00114944044F0806292FAA2F73E
:1005500000EB1264B7FA87F74FEA870C0F2726687B
:1005600007FA0CF7BE4392FAA2F7D1F804E0B7FA03
:1005700087F7BF000EFA07FE46EA0E0626600E69F0
:10058000C7684FEA122C9CFAACFCBCFA8CFC27EA38
:10059000122706FA0CF63743C7604E68012E01D0C9
:1005A000092E2BD192FAA2F7B7FA87F74FEA870CF8
:1005B000032707FA0CF72668D1F808E0BE4392FA41
:1005C000A2F7B7FA87F7BF000EFA07FE92FAA2FC6D
:1005D00046EA0E06BCFA8CFC4FEA8C0E4FF0040C77
:1005E00026600CFA0EFC92FAA2F2B2FA82F2CF68FE
:1005F000920026EA0C0697403E4326605B1C35FAC3
:1006000003F292D10020F0BD00B5034600F0A0F93E
:10061000186000F073F9586000F07EF9986058682F
:1006200000F088F9D86000BD10B503680122C3F35B
:1006300080132BBBD1E900231A43D1E902342343B1
:100640001A430B691A434B691A438B691A43CB69E6
:100650001A430B6A1A4303684FF6BF74A3431A4345
:10066000026042684B6922F0040242EA134242608F
:100670000A6AB2F5005F02D1898C89B20161002259
:10068000C16921F40061C161104610BD01490860D3
:10069000704700000C0000202DE9FF410446C068AF
:1006A0000D460126C0F34030002861D1E968686832
:1006B000E2680843296941F20C639A4311430843F5
:1006C000E060A868216921F4405101432161686913
:1006D000616921F44071014361616846FFF794FF4D
:1006E0002548844201D103980CE02448844208D074
:1006F0002348844205D02348844202D022488442C1
:1007000036D10298A0B32A6892B300EBC00101EB86
:1007100000119200B1FBF2F36420B3FBF0F36FF031
:1007200018077B43B1FBF2F5B1FBF2F705EB83054C
:10073000322303EB0515B5FBF0F5B7FBF0F705F039
:10074000F00505EB0715B1FBF2F7B1FBF2F1B1FBD8
:10075000F0F100266FF01802514307EB810103EB23
:100760000111B1FBF0F000F00F00284480B2A0604E
:1007700004B03046BDE8F08100380140004400403C
:1007800000480040004C00400050004000B585B0DB
:1007900014216846FFF7EFFC1020FFF799FE202098
:1007A000FFF796FE0420FFF793FE0820FFF790FE68
:1007B00008481E2241F61E6142610091012101910B
:1007C00002210291002103916946FFF7A5FE05B0C1
:1007D00000BD00000008014030B58FB028216846F8
:1007E000FFF7C9FC14210AA8FFF7C5FC4FF480509D
:1007F000FFF77AFE0420FFF777FE4AF2A0000A9086
:1008000009200B9003200024CDE90C04114D0AA906
:100810002846FFF781FE44F240000A9004200B9026
:100820000AA92846FFF778FE4FF48270CDE9004010
:100830006815CDE9044002940820CDE9060403942C
:100840000A20CDE9084069460348FFF7EDFE0FB0E6
:1008500030BD0000000801400030014030B58DB0CF
:100860001C216846FFF787FC142107A8FFF783FCCB
:100870004FF48040FFF744FE0420FFF741FE194883
:1008800007900920089003200024CDE90904164DA3
:1008900007A92846FFF740FE144807900420089057
:1008A00007A92846FFF738FE4FF4E130CDE90004F0
:1008B0000C200294CDE90340059406940C4C694643
:1008C0002046FFF7E9FE206920F49040206160692E
:1008D00020F02A006061E06840F40050E0600DB054
:1008E00030BD0000020002040008014004000404BE
:1008F00000380140FEE7704770470000044949682E
:10090000044A01F0F0010909515CC8407047000039
:1009100000100240DE0A000804494968044A01F454
:10092000E06102EB11210978C840704700100240D5
:10093000EE0A000804494968044A01F4605102EBD8
:10094000D1210978C840704700100240EE0A000823
:100950000648406810F00C01054805D0042903D072
:10096000082901D100F006B87047000000100240CD
:1009700000127A000B48416811F480320A4909D00C
:10098000B2F5803F06D14168084AC1F34041491C95
:10099000B2FBF1F14068022200F4701002EB9040CB
:1009A000484370470010024000093D0000127A00E1
:1009B0007047FFF7D7BC00001E48016821F007010F
:1009C00041F00201016000681B48016841F4803178
:1009D00001600168C1F340410029FAD0416821F467
:1009E0007C1141F4E8114160016841F080710160BF
:1009F0000168C1F340610029FAD0416821F0F0019B
:100A00004160416821F4E06141F4806141604168E6
:100A100021F460514160416821F0030141F002017D
:100A20004160416801F00C010829FAD10348FFF741
:100A30002DBE0000002002400010024000A24A0427
:100A40000D48016841F00101016041680B4A114005
:100A5000416001680A4A11400160016821F4802167
:100A60000160416821F4FE0141604FF41F01816083
:100A70000449C00308607047001002400000FFF8FE
:100A8000FFFFF6FE08ED00E0FEE70907090E00286B
:100A900004DB00F1E02080F80014704700F00F0044
:100AA00000F1E02080F8141D704702E008C8121F12
:100AB00008C1002AFAD170477047002001E001C147
:100AC000121F002AFBD17047FFF754FCFFF774FF99
:100AD000FFF75CFEFFF7C2FEFFF77EFEFEE70000B9
:100AE00000000000000001020304060708090000DE
:100AF0000000010203040000180B000800000020A1
:100B000010000000AA0A0008280B000810000020AE
:100B100020040000BA0A00080100000010000000D4
:080B2000000000000024F400B5
:0400000508000131BD
:00000001FF
